S00F000047534D76315F30312E6D6F7424
S1070000942DFFFF39
S1130004A92CA92CA92CA92CA92CA92CA92CA92C40
S1130014A92CA92CA92CA92CA92CF928A92CA92CE4
S11300243F2A6129A92CA92C992CA92CA92CA92CE7
S1130034C821A92CA92CA92CA92CA92CA92CA92CFC
S1130044A92CA92CA92CA92CA92CA92CA92CA92C00
S1130054A92CA92CA92CA92CA92CA92CA92CA92CF0
S1130064A92CA92CA92CA92CA92CA92CA92CA92CE0
S10F0074A92CA92CA92CA92CA92CA92C7E
S10700C0EFFFE8045E
S10D00C4000000000000000000002E
S10700D8140001000B
S11300DC61EFC1C361CF20A83034F7B800FCAB2169
S11300EC00AF34F7BDF0BF32F7BDF0BDE8F4EAF46D
S11300FCEBB800ADEAB802FCD75D00ADF0B828ADA2
S113010CF2B82AA828BDF0B800A82ABDF2B802306B
S113011CE17AB804306440B806FC1B5F00ADF0B85B
S113012C18ADF2B81AA818BDF4B824A81ABDF0B8C2
S113013C26A824BDF2B800A826BDF4B802FC475D7D
S113014C00ADF0B814ADF2B816A814BDF0BF1AF790
S113015CBDF0B810F19812F19813A810BDF0B800C6
S113016CA812BDF2B802FCD75D00ADF0B820ADF218
S113017CB822A820BDF4B800A822BDF0B80230F60D
S113018C28B804303041B806FC1B5F00ADF0B80C45
S113019CADF2B80EA80CBDF2B81CA80EBDF4B81E76
S11301ACA81CBDF0B800A81EBDF2B802FC475D0047
S11301BCADF0B808ADF2B80AA808BDF0BF1AF7FC48
S11301CC300300AF18F7BDF0C9F4A800AEF8BDF4C5
S11301DC04A800BDF40484FFB80030A072B802ADCA
S11301ECF0B804FC392F00C9F0A800AEF8BDF00437
S11301FCA800BDF00484FFB800FC742E00ADF0B868
S113020CA4BDF0B8A6EC880200A8A644010071FFB6
S113021C61E3EC460200A8A6A1BDF0AEF8BDF4045F
S113022C2C00BDF2A8A606F2BDF2BDF4FAF48B9D27
S113023CF2DAF0481DF7EC6A0200AEF8BDF2042CB9
S113024C00BDF0A8A606F0BDF0BDF4FAF48B9DF247
S113025CA8A6041DF7BDF0BDF4EAF48DF299A8A686
S113026C44020061E8EC830200A8A6041DF7BDF06B
S113027CBDF2EAF2512C99A8A6B1B8A6A8A64400DE
S113028C0071FF61C8EC15020051569F22F7F5234B
S113029CF710A861EFC2C061CFD761EFC1C361CFC2
S11302AC200AAF18F7BDF4313EBDF4CFE80000AD21
S11302BCF4BEF030C520BEF200AEF4BDF4314EBD38
S11302CCF4BDF0F4F2F4F3B800ADF2B802FCD75D6F
S11302DC00ADF0BDE8ADF2BDEAADE8B804ADEAB8E6
S11302EC06F6B808EC1A0300A808BDF0A81206F02C
S11302FCBDF0A808041DF7BDF2BDF4FAF48B9DF211
S113030CADF0BDF4EAF48DF299A808A1B808A808D8
S113031C44060071FF61E3ECF40200100A61EFC2C1
S113032CC061CFD72002F6BF18F78F1CF79DF031B0
S113033C8EBDF2AF1AF7BDF0ADF201BDF20428F791
S113034CBDF2BDF4EAF4ADF0B98F1CF79DF0A4F046
S113035C8DF09F1CF79DF04AF00461E3EC6F0300F1
S113036CF51CF7F19801ECA003008801318EBDF067
S113037C01BDF00428F7BDF0BDF4FAF4ABBDF2AF47
S113038C18F7BDF0ADF206F0BDF0BF18F788019D6B
S113039CF081980188014C0461E3EC760300AF18FA
S11303ACF7BDF0CFE80000ADF0BEF030CDCCBEF21E
S11303BC00AEF4BDF0312EBDF0BF18F71002D720FB
S11303CC0288080CDF9801318EBDF2BDF001BDF03E
S11303DC06F2BDF0045D76BDF0BDF4FAF48B9DF22B
S11303ECA806BDF0BDF4EAF48DF299A806A1B806EE
S11303FC8801318EBDF2BDF001BDF006F2BDF004F2
S113040C5E76BDF0BDF4FAF48B9DF2A806BDF0BD8A
S113041CF4EAF48DF299A806A1B806BDF0BDF2EA8F
S113042CF2F1991002D72016AF34F9BDF0C9F216C7
S113043C00AEF8BDF2041600BDF204F1FFB80030B2
S113044CA472B802ADF0B804FC392F00AF00F7BDAC
S113045CF0C9F21600AEF8BDF2041600BDF204F1B8
S113046CFFB80030A472B802ADF0B804FC392F0008
S113047CAF0EF7BDF0A6F0ADF0BF0EF7AF00F7BDB1
S113048CF0B6F0ADF044150061F3EC1E0800ADF0CD
S113049C01044A7416AB61CB30A772B800F6B802EB
S11304ACFC94080030B072B800E6B802FC94080062
S11304BCEC1F080030BB72B800F6B802FC940800BC
S11304CC30C872B800E6B802FC940800E6BF38F9EC
S11304DCE6BF36F9300300BF00F7EC1F080030D438
S11304EC72B800E6B802FC940800307777BF3CF78A
S11304FC30772EBF3EF730676FBF40F7306F67BF62
S113050C42F7306C65BF44F7302E63BF46F7306F4B
S113051C6DBF48F7F54AF7303830BF5AF7F55CF73A
S113052C300400BF00F7EC1F080030F372B800E68B
S113053CB802FC940800300500BF00F7EC1F08005B
S113054C300173B800E6B802FC940800F6BFA4FAB4
S113055C300D00BF00F7EC1F080030FCF9B8003078
S113056CA6FAB802FC390900F6BF00F7EC1F080024
S113057C301173B800F6B802FC9408003068F7B870
S113058C00E6B802FC940800302373B800E6B80205
S113059CFC940800F6BF48F9F6BF00F7EC1F0800FE
S11305AC302673B800E6B802FC940800E6BF42F9A2
S11305BCF6BF66F7F6BF00F7EC1F0800303573B8CA
S11305CC00E6B802FC940800F6BF44F9F6BF00F745
S11305DCEC1F0800AF66F7BDF044000061E8ECFEC8
S11305EC0500304473B800E6B802FC940800EC0A29
S11305FC0600306A73B800E6B802FC9408003010A8
S113060C00BF00F7F6BF00F7EC1F0800307873B892
S113061C00E6B802FC940800F6BF00F7EC1F0800D3
S113062CE6BF3AF9308873B800E6B802FC940800C7
S113063C30F8F9B800E6B802FC940800309173B8AD
S113064C00E6B802FC940800F6BF46F9F6BF00F7C2
S113065CEC1F0800309473B800E6B802FC94080050
S113066CAF44F9BDF044000061E8EC8406003008A6
S113067C00BF00F7EC1F0800300A00BF00F7EC1FA6
S113068C0800309E73B800E6B802FC940800F6BF6C
S113069C00F7EC1F080030C073B800E6B802FC94F5
S11306AC0800301000BF00F7EC1F080030D373B8FB
S11306BC00E6B802FC940800F6BF00F7EC1F080033
S11306CC30E173B800E6B802FC94080030F073B85B
S11306DC00FCA2140030FF73B800E6B802FC9408C6
S11306EC00301200BF00F7EC1F0800300374B80090
S11306FCE6B802FC940800F6BF00F7EC1F080030C3
S113070C1274B800F6B802FC940800C9F00EFFADE0
S113071CF0BDF2FAF271F3C9F002FFADF0BDF2FADA
S113072CF27192F6BF38F9AF12F7BDF0C9F21600A8
S113073CAEF8BDF2041600BDF204F1FFB80030228D
S113074C74B802ADF0B804FC392F00C9F01600AE31
S113075CF8BDF0041600BDF004F1FFB800F6B802C1
S113076CFC940800309173B800F6B802FC940800AD
S113077CAF12F7BDF0A6F0ADF0BF12F7BDF0440315
S113078C0071FF61E3ECA90700F6BF12F7AF00F7A5
S113079CBDF0A6F0ADF0BF00F7EC1F0800EC1F088D
S11307AC00302D74B800F6B802FC940800C9F00EA1
S11307BCFFADF0BDF2FAF271F2AF00F7BDF0A6F0A6
S11307CCADF0BF00F7AF4AF9BDF0A6F0ADF0BF4AEB
S11307DCF9EC1F0800303C74B800F6B802FC94081D
S11307EC00AF12F7BDF0A6F0ADF0BF12F7BDF044A8
S11307FC020071FF61E3EC1A0800E6BF00F7C9F0D0
S113080C02FFADF0BDF2FAF27193EC1F0800EC1F7D
S113081C080000AF3CF9BDF044010061E8EC31087C
S113082C00F6BF3CF9AF34F9BDF044130071FF611D
S113083CF3EC5F0800AF36F9BDF044010061E8EC5D
S113084C5F0800AF34F9BDF0A6F0ADF0BF34F9EC9D
S113085C770800F6BF34F9AF38F9BDF044010061F4
S113086CE8EC770800300500BF00F7AF0EF7BDF0D9
S113087C44360071FF61E3EC910800F6BF0EF730CB
S113088C1400BF00F71016D72004ECB60800A80813
S113089CBDF0BDF2FAF28B9DF09800A80ABDF0B839
S11308AC02FCD60800A808A1B808A808BDF0BDF23F
S11308BCFAF28B9DF0D4F061E8EC9A08001004D79E
S11308CCE6BF0AF7D7E6BF0CF7D7A80644000061C9
S11308DCE8EC090900C9F010FF88049DF2ADF0BDE5
S11308ECF4EAF48DF29900AF0AF7BDF0440100610B
S11308FCE8ECF30800F6BF0AF7EC380900A8064444
S113090C010061E8EC380900C9F044FF88049DF249
S113091CADF0BDF4EAF48DF29900AF0CF7BDF044E0
S113092C010061E8EC260900F6BF0CF7D72004AFF0
S113093C36F9BDF044000061E8EC4D0900ECA30964
S113094C00AF38F9BDF044000061E8EC5F0900EC3D
S113095CA30900307674B800F6B802FC9408003091
S113096C8174B800E6B802FC940800A808BDF0B87D
S113097C00E6B802FC94080030FF73B800E6B80235
S113098CFC9408003068F7B800A80ABDF0B802FC63
S113099C5F2E00F6BF3AF91004D72004C9F201FF08
S11309ACC9F001FFADF0BDF4FAF48B5C019DF07A53
S11309BCF0015AF001ADF2BDF4FAF47104F0718156
S11309CCECC30A00AF04F7BDF2AF06F7BDF0ADF20D
S11309DC46F061F8ECC30A00AF08F7BDF0AF06F7B8
S11309ECBDF20408F8168B9DF2DAF0484EF9AF0606
S11309FCF7BDF0A6F0ADF0BF06F7BDF044FA0071F8
S1130A0CFF61E3EC170A00F6BF06F7AF08F7BDF079
S1130A1CA6F0ADF0BF08F7BDF044AA0071FF61E386
S1130A2CEC340A00F6BF08F7AF08F7BDF0B6F0AD2A
S1130A3CF0044EF9168B9DF04AF03E61E8EC530A33
S1130A4C00300700BF00F7AF08F7BDF0B6F0ADF00B
S1130A5C044EF9168B9DF04AF00A61E8EC7D0A000D
S1130A6CAF08F7BDF0B6F0DAF0F1484EF9F6BF086E
S1130A7CF7AF08F7BDF0B6F0ADF0044EF9168B9D48
S1130A8CF04AF00D61E8ECC30A00AF08F7BDF0B60C
S1130A9CF0DAF0F1484EF9F6BF08F7304EF9B80029
S1130AACF6B802FC940800309173B800F6B802FC56
S1130ABC940800FCDA0A00AF04F7BDF2AF06F7BDE8
S1130ACCF0ADF246F061E8ECD009001004D7200632
S1130ADCAF3EF9BDF044010061E8EC340B00F6BF05
S1130AEC3EF9E6BF46F9308B74B800F6B802FC94B4
S1130AFC080030F8F9B800F6B802FC9408003091FC
S1130B0C73B800F6B802FC940800304AFAB8003006
S1130B1C4EF9B802FC5F2E00FC640D00309774B8DB
S1130B2C00F6B802FC940800304EF9B80030A974F1
S1130B3CB802300A00B804FC3C2E00ADF0440000AE
S1130B4C61E8EC5C0B00300200BF00F7ECF20C0027
S1130B5C304EF9B80030B474B802300400B804FC58
S1130B6C3C2E00ADF044000061E8EC820B00FC1953
S1130B7C0D00ECF20C00304EF9B80030B974B80228
S1130B8C300300B804FC3C2E00ADF044000061E8D6
S1130B9CECA80B00FC391400ECF20C00304EF9B844
S1130BAC0030BC74B802300800B804FC3C2E00AD14
S1130BBCF044000061E8ECCE0B00FCC81000ECF231
S1130BCC0C00304EF9B80030C574B802300800B8C7
S1130BDC04FC3C2E00ADF044000061E8ECF40B0086
S1130BECFC421100ECF20C00304EF9B80030CE741B
S1130BFCB802300800B804FC3C2E00ADF0440000F0
S1130C0C61E8EC1A0C00FCA61500ECF20C00C9F01F
S1130C1C4EF9ADF0BDF2FAF28B9DF1C9F2D774AD79
S1130C2CF2BDF4FAF48B9DF08DF14BF061E8EC46D7
S1130C3C0C00FCAD1600ECF20C00304EF9B8003090
S1130C4CD974B802300A00B804FC3C2E00ADF04450
S1130C5C000061E8EC740C0030E474B800F6B802DF
S1130C6CFC940800ECF20C00304EF9B80030F67429
S1130C7CB802300500B804FC3C2E00ADF044000072
S1130C8C61E8ECF20C00AF48F9BDF044000061E8F7
S1130C9CECA80C00FC6F1300ECF20C00304EF9B80D
S1130CAC0030FC74B802300800B804FC3C2E00ADD3
S1130CBCF044000061E8ECCE0C00FC7C1000ECF27B
S1130CCC0C00304EF9B800300575B802300500B888
S1130CDC04FC3C2E00ADF044000061E8ECF20C0086
S1130CEC301400BF00F71006D7AF10F7BDF0A6F014
S1130CFCADF0BF10F7BDF044020071FF61E3EC18D6
S1130D0C0D00F6BF10F7301400BF00F7D7202830C1
S1130D1C4EF9B8003002F9B802300300B8043020A0
S1130D2C00B806E6B808FC111A003002F9B800FC49
S1130D3CA82E00ADF0B82601B8261230710023B8E5
S1130D4C243002F9B800300B75B802A824BDF0B8F1
S1130D5C04FC392F001028D72006301375B800F680
S1130D6CB802FC940800304AFAB800302175B80275
S1130D7C300400B804FC3C2E00ADF044000061E8E3
S1130D8CECA00D00FC270E00C9F002FFADF0BDF283
S1130D9CFAF271A2304AFAB800302675B80230045F
S1130DAC00B804FC3C2E00ADF044000061E8ECCE2D
S1130DBC0D00FC270E00C9F002FFADF0BDF2FAF2F3
S1130DCC71A3300C00BF00F71006D7EC130E00A86B
S1130DDC04BDF0BDF2FAF28B9DF04AF06061E3ECD5
S1130DEC130E00A804BDF0BDF2FAF28B9DF04AF08C
S1130DFC7A61F3EC130E00A804BDF0BDF2EAF251D3
S1130E0CE099A804A1B804A804BDF0BDF2FAF28BD1
S1130E1C9DF0D4F061E8ECDB0D00D761EFC1C36148
S1130E2CCF2058302B75B800F6B802FC940800C9D2
S1130E3CF468F7C9F23C75C9F01000ADF4B800AD14
S1130E4CF2B802ADF0B804FCF22D00C9F05800AEB3
S1130E5CF8BDF0045800BDF004E2FFB800FCA60293
S1130E6C00C9F25800AEF8BDF2045800BDF204EC0F
S1130E7CFFB800304C75B802C9EA5800AEF8BDEAA8
S1130E8C045800BDEA04E2FFB804FC392F003068B2
S1130E9CF7B800C9F05800AEF8BDF0045800BDF026
S1130EAC04ECFFB802FC0D2E00C9F25800AEF8BDDC
S1130EBCF2045800BDF204ECFFB800305975B802C6
S1130ECC3086FAB804FC392F003068F7B800C9EA48
S1130EDC5800AEF8BDEA045800BDEA04ECFFB802B1
S1130EECFC0D2E00AF4AF9BDF0C9F25800AEF8BDA6
S1130EFCF2045800BDF204ECFFB800306175B8027E
S1130F0CADF0B804FC392F003068F7B800C9EA58C2
S1130F1C00AEF8BDEA045800BDEA04ECFFB802FCCC
S1130F2C0D2E0051209F02F9C9F05800AEF8BDF007
S1130F3C045800BDF004ECFFB800306F75B80230F3
S1130F4C02F9B804FC392F003068F7B800C9F2581C
S1130F5C00AEF8BDF2045800BDF204ECFFB802FC7C
S1130F6C0D2E00C9EA5800AEF8BDEA045800BDEADB
S1130F7C04ECFFB800307A75B802303CF7B8043092
S1130F8C5AF7B806FC392F003068F7B800C9F05886
S1130F9C00AEF8BDF0045800BDF004ECFFB802FC40
S1130FAC0D2E00AEF8BDF2042C00BDF0B800FCD040
S1130FBC1900A830BDE8A832BDF6A834BDF4A83693
S1130FCCBDF2A838BDF0C9EA5800AEF8BDEA045821
S1130FDC00BDEA04B6FFB800308575B802ADE8B8B8
S1130FEC04ADF6B806ADF4B808ADF2B80AADF0B875
S1130FFC0CFC392F003068F7B800C9F05800AEF873
S113100CBDF0045800BDF004B6FFB802FC0D2E0070
S113101C30A6FAB8003068F7B802FC5F2E0030AC8A
S113102C75B800F6B802FC94080030A6FAB800F6BD
S113103CB802FC940800309173B800F6B802FC9422
S113104C0800E6BF48F9303037BFFCF9303230BF06
S113105CFEF9303633BF00FA303130BF02FA30308B
S113106C35BF04FAF506FA105861EFC2C061CFD748
S113107C201A304EF9B8003086FAB802300A00B89B
S113108C04302200B806300500B808FC111A0030F0
S113109C4EF9B80030BD75B802300200B804FC3CFF
S11310AC2E00ADF044000061E8ECC11000F6BF4422
S11310BCF9ECC51000E6BF44F9101AD7201A304ECB
S11310CCF9B8003086FAB802300F00B804302000AA
S11310DCB806E6B808FC111A003086FAB800FC749D
S11310EC2E00ADF044030061E3EC2F1100E6BF4485
S11310FCF9F6BF42F9300A00BF00F73086FAB8009F
S113110CF6B802FC940800309173B800F6B802FCEF
S113111C94080030C075B800F6B802FC940800ECD2
S113112C3F1100F6BF44F930D175B800F6B802FC93
S113113C940800101AD761EFC161CF2036F6B83489
S113114CF6BF5EF7F6BF60F7F6BF62F7F6BF64F75B
S113115CF6BF66F7304EF9B800C9F03600AEF8BDEC
S113116CF0043600BDF004F4FFB802300F00B804EC
S113117C302000B806E6B808FC111A00C9F2360093
S113118CAEF8BDF2043600BDF204F4FFB800C9F4A5
S113119C3600AEF8BDF4043600BDF404EFFFB8021B
S11311AC300F00B804302C00B806F6B808FC111A3D
S11311BC00C9E83600AEF8BDE8043600BDE804F416
S11311CCFFB800C9F03600AEF8BDF0043600BDF02F
S11311DC04EAFFB802300F00B804302C00B806E65D
S11311ECB808FC111A00AEF8BDF2042000BDF0BD25
S11311FCF4FAF48B9DF1C9F2E275ADF2BDE8FAE8AC
S113120C8B9DF08DF14BF061E8ECC51200AEF8BD8E
S113121CF2042500BDF0BDF4FAF48B9DF1C9F2E2A1
S113122C75ADF2BDE8FAE88B9DF08DF14BF061E8F9
S113123CEC441200E6BF5EF7AEF8BDF2042500BD27
S113124CF0BDF4FAF48B9DF1C9F2E475ADF2BDE88E
S113125CFAE88B9DF08DF14BF061E8EC6F1200E62F
S113126CBF60F7AEF8BDF2042500BDF0BDF4FAF48E
S113127C8B9DF1C9F2E675ADF2BDE8FAE88B9DF0F1
S113128C8DF14BF061E8EC9A1200E6BF62F7AEF810
S113129CBDF2042500BDF0BDF4FAF48B9DF1C9F246
S11312ACE875ADF2BDE8FAE88B9DF08DF14BF06179
S11312BCE8ECC51200E6BF64F7AF5EF7BDF6AF60AD
S11312CCF7BDF4AF62F7BDF2AF64F7BDF0C9E83611
S11312DC00AEF8BDE8043600BDE804D6FFB8003013
S11312ECEA75B802ADF6B804ADF4B806ADF2B808B8
S11312FCADF0B80AFC392F00C9F03600AEF8BDF0D9
S113130C043600BDF004D6FFB800F6B802FC94080D
S113131C00AF5EF7BDF044010061F8EC551300AF6B
S113132C60F7BDF044010061F8EC551300AF62F7AF
S113133CBDF044010061F8EC551300AF64F7BDF047
S113134C44010061E8EC631300E6BF66F73011005A
S113135CBF00F7EC671300F6BF66F7103661EFC0F9
S113136C61CFD72074C9F07400AEF8BDF0047400DA
S113137CBDF00497FFB800304EF9B802FC5F2E00A4
S113138C304EF9B800C9F07400AEF8BDF004740026
S113139CBDF004F1FFB802300A00B804302C00B8D8
S11313AC06F6B808FC111A00C9F07400AEF8BDF0CA
S11313BC047400BDF004F1FFB80030F8F9B8023041
S11313CC0300B804302000B806E6B808FC111A0073
S11313DC304EF9B80030FCF9B802301400B80430BF
S11313EC2200B806300300B808FC111A003030375C
S11313FCBFFCF9303230BFFEF9303633BF00FA305F
S113140C3130BF02FA303035BF04FAF506FA30F841
S113141CF9B800F6B802FC940800309173B800F6E1
S113142CB802FC940800E6BF3EF91074D7201830BB
S113143C1076B800F6B802FC940800F6BF0EF7AFAD
S113144C48F9BDF044010061E8EC791400AF38F9B7
S113145CBDF044010061E8EC6D1400300600BF00DF
S113146CF7301976B800F6B802FC940800AF00F710
S113147CBDF044050061E8EC8B1400E6BF40F9AF05
S113148C46F9BDF044010061E8EC9F1400300C00F7
S113149CBF00F71018D7202EA832BDF0B800FC748A
S11314AC2E00ADF0B82CC9F02E00AEF8BDF0042E11
S11314BC00BDF004DEFFB800302376B802A82CBDC2
S11314CCF0B804FC392F00C9F22E00AEF8BDF204BA
S11314DC2E00BDF204DEFFB800F6B802FC9408003E
S11314ECF6B82AF4F08DF09F0CF9EC491500A832EB
S11314FCBDF0BDF2FAF28B9DF0C9F22E00AEF8BD30
S113150CF2042E00BDF204D9FFB8008DF09802FC51
S113151CCB0300A832A1B832300CF9B800C9F02EB4
S113152C00AEF8BDF0042E00BDF004D9FFB802FCE7
S113153C0D2E00A82CB1B82CA82AA1B82AA82C448A
S113154C000071FF61F3ECFA1400300CF9B800FCE4
S113155C742E00ADF0040CF9BDF0C9F42D76C9F26B
S113156C0500B800ADF4B802ADF2B804FCF22D00DD
S113157C300CF9B800E6B802FC940800300CF9B849
S113158C00F6B802FC940800309173B800F6B80267
S113159CFC940800F50CF9102ED7201E304EF9B827
S11315AC00C9F01E00AEF8BDF0041E00BDF004F638
S11315BCFFB802300F00B804302000B806E6B808B3
S11315CCFC111A00C9F21E00AEF8BDF2041E00BDD7
S11315DCF204F6FFB800C9F41E00AEF8BDF4041E04
S11315EC00BDF404F1FFB802300F00B804302C0035
S11315FCB806F6B808FC111A00C9F01E00AEF8BD06
S113160CF0041E00BDF004F6FFB800C9F21E00AED3
S113161CF8BDF2041E00BDF204ECFFB802300F005A
S113162CB804302C00B806E6B808FC111A00AEF861
S113163CBDF4040A00BDF0BDF2FAF28B9DF1C9F2BF
S113164C3276ADF2BDF4FAF48B9DF08DF14BF06172
S113165CE8EC6D1600303476B800F6B802FC940849
S113166C00AEF8BDF2040A00BDF0BDF4FAF48B9D93
S113167CF1C9F2E275ADF2BDF4FAF48B9DF08DF183
S113168C4BF061E8ECAA1600F6BF66F7304576B865
S113169C00F6B802FC940800300B00BF00F7101ED3
S11316ACD72064F6B862F6B860F6B85C304EF9B878
S11316BC00FC742E00ADF0B85AF6B85EECC61700F8
S11316CCA86044010071FF61F3EC061700A86204E2
S11316DC4EF9BDF0BDF4FAF48B9DF2AEF8BDF404F2
S11316EC3600BDF0A86006F0BDF0BDF4EAF48DF24E
S11316FC99A860A1B860EC741700F6B860F198383A
S113170C88369DF09800FC1B1800ADF0314DB8588C
S113171C88379DF09800FC1B1800A85806F0B858A0
S113172C88589DF2AEF8BDF4040400BDF0A85E0622
S113173CF0BDF0BDF4EAF48DF299A85EA1B85EA8F0
S113174C62044EF9BDF0BDF4FAF48B9DF2AEF8BD13
S113175CF4043600BDF0A86006F0BDF0BDF4EAF464
S113176C8DF299A860A1B860A86244070061E8EC06
S113177CC11700F1983888369DF09800FC1B1800AE
S113178CADF0314DB85888379DF09800FC1B18000B
S113179CA85806F0B85888589DF2AEF8BDF4040465
S11317AC00BDF0A85E06F0BDF0BDF4EAF48DF2992C
S11317BCA85EA1B85EA862A1B862A85ABDF0A862DE
S11317CC46F071FF7177F161D8ECCC1600A85EA1DC
S11317DCB85EAEF8BDF2040400BDF0A85E06F0BD20
S11317ECF0BDF4EAF4F199C9F06400AEF8BDF0046C
S11317FC6400BDF004A0FFB800F6B802FC94080025
S113180C309173B800F6B802FC9408001064D72029
S113181C04F6B802303000B800303000B800880844
S113182C4C2F61E3EC60180088084C3961F3EC60D0
S113183C1800EC4C1800A800A1B800A802A1B8022A
S113184C8808318EBDF2A800BDF0ADF246F061E817
S113185CEC421800304100B80088084C4061E3ECBD
S113186CA2180088084C4661F3ECA21800EC871807
S113187C00A800A1B800A802A1B8028808318EBD46
S113188CF2A800BDF0ADF246F061E8EC7D1800A8BA
S113189C02040A00B802A802BDF01004D7AF04F782
S11318ACBDF088049DF2DAF04808F8AF04F7BDF0F7
S11318BCA6F0ADF0BF04F7BDF044FA0071FF61E38C
S11318CCECD41800F6BF04F7D7205EAF56FBBDF07E
S11318DCA6F0ADF0BF56FBBDF0AF56FBBDF0443BDC
S11318EC0071FF61E3EC4D1900F6BF56FBAF54FBDE
S11318FCBDF0A6F0ADF0BF54FBBDF044020061F89E
S113190CEC4D1900AF54FBBDF044050061F8EC4DEF
S113191C1900AF54FBBDF0440A0061F8EC4D1900FA
S113192CAF54FBBDF044140061F8EC4D1900AF54F6
S113193CFBBDF0441E0061F8EC4D1900AF54FBBD27
S113194CF0AF54FBBDF0443B0071FF61E3EC6D1947
S113195C00F6BF54FBAF52FBBDF0A6F0ADF0BF5286
S113196CFBAF52FBBDF044170071FF61E3EC8D1922
S113197C00F6BF52FBAF50FBBDF0A6F0ADF0BF506C
S113198CFBAF50FBBDF044060071FF61E3ECAD19F5
S113199C00F6BF50FBAF4EFBBDF0A6F0ADF0BF4E52
S11319ACFBAF4EFBBDF044330071FF61E3ECCD198A
S11319BC00F6BF4EFBAF4AFBBDF0A6F0ADF0BF4A3C
S11319CCFB105ED7A804BDF0AF4AFBBDF2ADF0BD71
S11319DCF4EAF4ADF2B9AF4CFBBDF2BA02AF4EFB74
S11319ECBDF2BA04AF50FBBDF2BA06AF52FBBDF266
S11319FCBA08AF54FBBDF2BA0AAF56FBBDF2BA0C2F
S1131A0CA804BDF0D72006F6B804F6B802F1980184
S1131A1C880E9DF091980EECD11A00A804BDF0A884
S1131A2C0A06F0BDF0BDF2FAF28B9DF188109DF020
S1131A3C8DF14BF061E8EC661A0088129DF0880178
S1131A4C4BF061E8EC581A00ECEA1A0088019DF09E
S1131A5C819801F6B802ECC71A00A804BDF0A80AD4
S1131A6C06F0BDF0BDF4FAF48B9DF04AF01F61E36F
S1131A7CECC71A00A802BDF0A80C06F0BDF0A8042F
S1131A8CBDF2A80A06F2BDF2BDF4FAF48B9DF2ADD8
S1131A9CF0BDF4EAF48DF299880E318EBDF2A802F1
S1131AACBDF0ADF246F071FF7177F161E3ECC71A4A
S1131ABC00A802BDF0A6F0ADF0B802A804BDF0A6D3
S1131ACCF0ADF0B804A804BDF0A80A06F0BDF0BD52
S1131ADCF2FAF28B9DF0D4F061E8EC271A0088122C
S1131AEC9DF088014BF061F8EC001B00F6B8023055
S1131AFCFFFFB804A802BDF0A80C06F0BDF0BDF4BD
S1131B0CEAF4F199A804BDF01006D761EFC1C361E2
S1131B1CCF2020F6B81AE1981988304C0A61E8EC09
S1131B2CD41C003000CAB81C309A3BB81E882B71E8
S1131B3CFC61C8EC741B00FBF8FF30000061292821
S1131B4CBC2830000061D8B161292ABC2AA81ABD6E
S1131B5CF0A82C06F0BDF0BDF2EAF2512D99A81AAA
S1131B6CBDF0A6F0ADF0B81AECBE1C00A828BDE878
S1131B7CA82ABDEAA81CBDF4B808A81EBDF0B80A72
S1131B8CA808BDF0A80ABDF251C09FE800ADEABE9A
S1131B9CF2ADE8BEF0ADF2BEF4ADF0BEF651C19FAD
S1131BACE8008FE8003103FAAEF0BDF4AEF2BDF6F6
S1131BBCADF4B814ADF6B81688149818D161F8ECD5
S1131BCCD21B00F198198819D161E8ECFE1B00A80E
S1131BDC1ABDF0A82C06F0BDF088180C309DF2AD9F
S1131BECF0BDF4EAF48DF299A81ABDF0A6F0ADF0AC
S1131BFCB81AA828BDF0B810A82ABDF2B8128818D3
S1131C0C9DF0980CF1980DF1980EF1980FCFE80017
S1131C1C00A80CBEF0A81CBEF200AEF612CFE80071
S1131C2C40AEF4BFE000A80EBEF0A81CBEF200A8A3
S1131C3C0CBEF0A81EBEF213BDF0AFE000BDF2A8BE
S1131C4C1026F0BDF4A81261D8B126F2BDF6ADF49D
S1131C5CB828ADF6B82AA81CBDF4B804A81EBDF06B
S1131C6CB806A806C1A806C132CCCC30CDCCFC2A0F
S1131C7C64001004BDF013BDF2ADF0315D9DF0D8DD
S1131C8CF18DF2315D9DF1ADF2313EBDF2ADF0B8A6
S1131C9C1CADF2B81EA82EB1BDF2A81ABDF0ADF25F
S1131CAC46F071FF7177F161F3ECBE1C0000ECADF2
S1131CBC1D00A81E440000A81C61F844000061E843
S1131CCCEC781B00ECAD1D0088304C1061E8ECADD9
S1131CDC1D00302000B81CF6B81EEC9B1D00A81C7F
S1131CECBDF004FCFFBDF08DF074A82A12A828FCEA
S1131CFCE86200BDF013BDF28DF05C0F981861F82A
S1131D0CEC131D00F198198819D161E8EC701D00D1
S1131D1C88184C0961F3EC431D00A81ABDF0A82CDB
S1131D2C06F0BDF088180C309DF2ADF0BDF4EAF469
S1131D3C8DF299EC661D0088184C0961E3EC661D64
S1131D4C00A81ABDF0A82C06F0BDF088180C379D1D
S1131D5CF2ADF0BDF4EAF48DF299A81ABDF0A6F038
S1131D6CADF0B81AA81C04FCFFB81CA81E61D8A1BD
S1131D7CB1B81EA82EB1BDF2A81ABDF0ADF246F052
S1131D8C71FF7177F161F3EC9B1D00ECAD1D00A8A4
S1131D9C1E440000A81C61F844000061E8ECEA1C35
S1131DAC0088194C0161E8ECD21D00A81ABDF0A8FA
S1131DBC2C06F0BDF0BDF2EAF2513099A81ABDF030
S1131DCCA6F0ADF0B81AA81ABDF0A82C06F0BDF018
S1131DDCBDF4EAF4F199102061EFC2C061CFD76170
S1131DECEFC1C361CF201CF6B818F6B81A88264C7C
S1131DFC0A61E8ECCB1E00ECB41E00A824BDF0BDB7
S1131E0CF2FAF28B9DF04AF02F61E3ECAF1E00A8BE
S1131E1C24BDF0BDF2FAF28B9DF04AF03961F3EC7B
S1131E2CAF1E00A818BDE8A81ABDEAADE8BDF4AD14
S1131E3CEABDF6ADF6312D9DF7D8F58DF6312D9D15
S1131E4CF6ADF4312DBDF4ADF406E8BDF4ADF66198
S1131E5CD8A106EABDF6ADF401BDF0ADF661EEBD58
S1131E6CF2ADF0BDF4ADF2BDF6ADF4B818ADF6B804
S1131E7C1AA824BDF0BDF2FAF28B9DF0F4F1ADF08A
S1131E8C04D0FFBDF0B814317B9DF098169817FB65
S1131E9CF8FFA818610914B818A81A61D8A1610927
S1131EAC16B81AA824A1B824A824BDF0BDF2FAF2DD
S1131EBC8B9DF0D4F061E8EC071E00EC63200088E5
S1131ECC264C1061E8EC632000EC502000A824BDE3
S1131EDCF0BDF2FAF28B9DF04AF02F61E3EC4B204B
S1131EEC00A81A314D981B881970881A314D981A0C
S1131EFCA818314DB818A824BDF0BDF2FAF28B9D88
S1131F0CF04AF02F61E3EC711F00A824BDF0BDF280
S1131F1CFAF28B9DF04AF03961F3EC711F00A8249E
S1131F2CBDF0BDF2FAF28B9DF0F4F1ADF004D0FFEC
S1131F3CBDF0B810317B9DF098129813FBF8FFA8F4
S1131F4C1812AC10616362616063BDF0A81A12AC24
S1131F5C12616362616063BDF2ADF0B818ADF2B8A2
S1131F6C1AEC4B2000A824BDF0BDF2FAF28B9DF0C4
S1131F7C4AF06061E3ECE01F00A824BDF0BDF2FA66
S1131F8CF28B9DF04AF06661F3ECE01F00A824BDCF
S1131F9CF0BDF2FAF28B9DF0F4F1ADF004A9FFBDA3
S1131FACF0B80C317B9DF0980E980FFBF8FFA81835
S1131FBC12AC0C616362616063BDF0A81A12AC0EC2
S1131FCC616362616063BDF2ADF0B818ADF2B81A2A
S1131FDCEC4B2000A824BDF0BDF2FAF28B9DF04A24
S1131FECF04061E3EC4B2000A824BDF0BDF2FAF202
S1131FFC8B9DF04AF04661F3EC4B2000A824BDF015
S113200CBDF2FAF28B9DF0F4F1ADF004C9FFBDF012
S113201CB808317B9DF0980A980BFBF8FFA81812AE
S113202CAC08616362616063BDF0A81A12AC0A610A
S113203C6362616063BDF2ADF0B818ADF2B81AA872
S113204C24A1B824A824BDF0BDF2FAF28B9DF0D4DF
S113205CF061E8ECD91E00A818BDF0B804A81ABDAC
S113206CF2B806A804BDF0B800A806BDF2B802A8E0
S113207C00BDF0A802BDF2101C61EFC2C061CFD745
S113208CC9F0F000ADF0BDF2FAF271D2C9F030FF34
S113209CADF0BDF4EAF4F199C9F0E7FFADF0BDF28F
S11320ACFAF27182C9F0E3FFADF0BDF4FAF4718376
S11320BCC9F0EFFFADF0BDF2FAF27182C9F0EBFF9B
S11320CCADF0BDF4FAF47182C9F222FFC9F022FF1B
S11320DCADF0BDF4FAF48B9DF06AF001ADF2BDF4F1
S11320ECEAF48DF099C9F030FFADF0BDF2EAF2F1EB
S11320FC99C9F032FFADF0BDF4EAF4F199C9F010CE
S113210C00ADF0BDF2EAF2F199C9F01100ADF0BDE9
S113211CF4EAF451FF99C9F01200ADF0BDF2EAF201
S113212CF199C9F031FFADF0BDF4EAF4F199C9F0BD
S113213C30FFADF0BDF2FAF27182D7C9F0E3FFAD16
S113214CF0BDF2FAF27183C9F0E7FFADF0BDF2FA1B
S113215CF27183C9F030FFADF0BDF2FAF271F2D72F
S113216CC9F030FFADF0BDF2FAF271F3C9F0E7FF3C
S113217CADF0BDF2FAF27182C9F0E3FFADF0BDF23D
S113218CFAF27183D7C9F030FFADF0BDF2FAF271F7
S113219C82D7C9F030FFADF0BDF2FAF27183D7C922
S11321ACF01EFFADF0BDF2FAF2ABBDF0316EBDF234
S11321BCA804BDF0BDF4EAF4ADF2B9D761CFC1C344
S11321CCC5C761DFC1C3C561CFC9F202FFC9F00243
S11321DCFFADF0BDF4FAF48B3159317A9DF07AF0FD
S11321EC015AF001ADF2BDF4FAF47104F071A1617D
S11321FCDFC4C2C061CFC6C4C2C061FCC9F0A0FFB9
S113220CADF0BDF2EAF2F199C9F0A1FFADF0BDF267
S113221CFAF271F2C9F0A4FFADF0BDF2FAF271C397
S113222CC9F0F300ADF0BDF2EAF2F199C9F0A1FFE7
S113223CADF0BDF2FAF27183D72002C9F0A8FFAD5C
S113224CF0BDF2FAF28B9DF098011002D7C9F0019F
S113225CFFADF0BDF2EAF2F199C9F002FFADF0BDA9
S113226CF2EAF2F199C9F00EFFADF0BDF2EAF2F127
S113227C99C9F05100ADF0BDF2EAF2518099C9F060
S113228C6E00ADF0BDF2EAF2517F99C9F07600AD63
S113229CF0BDF2EAF2510299C9F021FFADF0BDF2A2
S11322ACEAF251FC99C9F022FFADF0BDF2EAF25109
S11322BCF999C9F02EFFADF0BDF2EAF2517F99D72E
S11322CCC9F0F000ADF0BDF2FAF271A2000000000A
S11322DCC9F02601ADF0BDF2EAF2301400B9FCF3FA
S11322EC2200FC632500D7C9F22401C9F02401ADF6
S11322FCF0BDF4FAF4ABBDF06AF001ADF2BDF4EA52
S113230CF4ADF0B9C9F0E5FFADF0BDF2FAF271D25B
S113231CC9F0E1FFADF0BDF4FAF471D3C9F0E5FFF7
S113232CADF0BDF2FAF271E2C9F0E1FFADF0BDF42B
S113233CFAF471E3C9F0E5FFADF0BDF2FAF271F213
S113234CC9F0E1FFADF0BDF4FAF471F3C9F0EDFF9F
S113235CADF0BDF2FAF271D2C9F0E9FFADF0BDF403
S113236CFAF471D2C9F01001ADF0BDF2EAF23022E8
S113237C00B9C9F01801ADF0BDF4EAF4309780B996
S113238CC9F010FFADF0BDF2EAF23000CEB9C9F2DB
S113239C2801C9F02801ADF0BDF4FAF4ABBDF06A24
S11323ACF001ADF2BDF4EAF4ADF0B9C9F23401C9EF
S11323BCF03401ADF0BDF4FAF4ABBDF0ADF2BDF404
S11323CCEAF4ADF0B9C9F22A01C9F02A01ADF0BDA5
S11323DCF4FAF4ABBDF06AF001ADF2BDF4EAF4AD7D
S11323ECF0B9C9F201FFC9F001FFADF0BDF4FAF484
S11323FC8B9DF06AF004ADF2BDF4EAF48DF099C94A
S113240CF221FFC9F021FFADF0BDF4FAF48B9DF07D
S113241C5AF0FBADF2BDF4EAF48DF099D7C9F22869
S113242C01C9F02801ADF0BDF4FAF4ABBDF06AF0CB
S113243C01ADF2BDF4EAF4ADF0B9C9F22A01C9F068
S113244C2A01ADF0BDF4FAF4ABBDF06AF001ADF2C3
S113245CBDF4EAF4ADF0B9C9F22201C9F02201AD20
S113246CF0BDF4FAF4ABBDF06AF001ADF2BDF4EAE0
S113247CF4ADF0B9C9F0E1FFADF0BDF2FAF271D3ED
S113248CC9F0E5FFADF0BDF4FAF471D3D7C9F0E5AA
S113249CFFADF0BDF2FAF271D2C9F22401C9F024F5
S11324AC01ADF0BDF4FAF4ABBDF06AF001ADF2BDD0
S11324BCF4EAF4ADF0B9C9F22A01C9F02A01ADF07D
S11324CCBDF4FAF4ABBDF05AF0FEADF2BDF4EAF48F
S11324DCADF0B9C9F0E1FFADF0BDF2FAF271D3D7AA
S11324EC2002F6B800A80844000061E8EC052500B9
S11324FC308100B800EC5C2500A806BDF0BF6EFB73
S113250CA808BDF0BF64FBC9F0E5FFADF0BDF2FA5D
S113251CF271D2C9F210FFAF6EFBBDF0BDF4FAF448
S113252C8B9DF0ADF2BDF4EAF48DF099AF6EFBBD6A
S113253CF0A6F0ADF0BF6EFBAF64FBBDF0B6F0AD32
S113254CF0BF64FBC9F0E5FFADF0BDF2FAF271D354
S113255CA800BDF01002D7C9F22401C9F02401ADC2
S113256CF0BDF4FAF4ABBDF06AF00CADF2BDF4EAD4
S113257CF4ADF0B9C9F0E6FFADF0BDF2FAF2718238
S113258CC9F0E2FFADF0BDF4FAF47183C9F0E6FFD3
S113259CADF0BDF2FAF27192C9F0E2FFADF0BDF408
S11325ACFAF47193C9F0E6FFADF0BDF2FAF271A240
S11325BCC9F0E2FFADF0BDF4FAF471A3C9F0EEFF7B
S11325CCADF0BDF2FAF27182C9F0EAFFADF0BDF4E0
S11325DCFAF47182C9F0EEFFADF0BDF2FAF2719229
S11325ECC9F0EAFFADF0BDF4FAF47192C9F014012C
S11325FCADF0BDF2EAF2302280B9C9F01C01ADF0A5
S113260CBDF4EAF4309780B9C9F044FFADF0BDF2E3
S113261CEAF2300088B9C9F27000C9F07000ADF06C
S113262CBDF4FAF48B9DF06AF004ADF2BDF4EAF457
S113263C8DF099C9F00E01ADF0BDF2EAF23007004D
S113264CB9C9F01601ADF0BDF4EAF4302281B9C970
S113265CF01E01ADF0BDF2EAF2309740B9C9F04674
S113266CFFADF0BDF4EAF4300088B9C9F22801C911
S113267CF02801ADF0BDF4FAF4ABBDF06AF004AD92
S113268CF2BDF4EAF4ADF0B9C9F23401C9F0340185
S113269CADF0BDF4FAF4ABBDF0ADF2BDF4EAF4ADBB
S11326ACF0B9C9F22A01C9F02A01ADF0BDF4FAF46B
S11326BCABBDF06AF004ADF2BDF4EAF4ADF0B9C907
S11326CCF26000C9F06000ADF0BDF4FAF48B9DF03B
S11326DC5AF0FDADF2BDF4EAF48DF099C9F220FF85
S11326ECC9F020FFADF0BDF4FAF48B9DF06AF00252
S11326FCADF2BDF4EAF48DF099C9F26000C9F06052
S113270C00ADF0BDF4FAF48B9DF05AF0FEADF2BDC1
S113271CF4EAF48DF099C9F200FFC9F000FFADF0B2
S113272CBDF4FAF48B9DF06AF001ADF2BDF4EAF459
S113273C8DF099C9F220FFC9F020FFADF0BDF4FA79
S113274CF48B9DF05AF0FEADF2BDF4EAF48DF099E1
S113275CD7C9F22801C9F02801ADF0BDF4FAF4ABE5
S113276CBDF06AF004ADF2BDF4EAF4ADF0B9C9F20F
S113277C2A01C9F02A01ADF0BDF4FAF4ABBDF06A3C
S113278CF004ADF2BDF4EAF4ADF0B9C9F22201C91A
S113279CF02201ADF0BDF4FAF4ABBDF06AF00CAD6F
S11327ACF2BDF4EAF4ADF0B9C9F0E2FFADF0BDF25C
S11327BCFAF27183C9F0E2FFADF0BDF4FAF471934F
S11327CCC9F0E6FFADF0BDF2FAF27183C9F0E6FF91
S11327DCADF0BDF4FAF47193D7C9F0E6FFADF0BDDA
S11327ECF2FAF27182C9F0E6FFADF0BDF4FAF471BD
S11327FC92C9F22401C9F02401ADF0BDF4FAF4AB92
S113280CBDF06AF00CADF2BDF4EAF4ADF0B9C9F266
S113281C2A01C9F02A01ADF0BDF4FAF4ABBDF05AAB
S113282CF0FBADF2BDF4EAF4ADF0B9C9F0E2FFADE2
S113283CF0BDF2FAF27183C9F0E2FFADF0BDF4FA27
S113284CF47193D72002F6B800A80844000061E89C
S113285CEC692800308100B800EC7B2800F6BF62DC
S113286CFBA808BDF0BF60FBA806BDF0BF66FBA8C3
S113287C00BDF01002D72002F6B800A808440000EE
S113288C61E8EC9B2800308100B800ECF22800A829
S113289C06BDF0BF6CFBA808BDF0BF70FBC9F0E629
S11328ACFFADF0BDF2FAF27182C9F244FFAF6CFBDA
S11328BCBDF0BDF4FAF48B9DF0ADF2BDF4EAF48DE9
S11328CCF099AF6CFBBDF0A6F0ADF0BF6CFBAF7034
S11328DCFBBDF0B6F0ADF0BF70FBC9F0E6FFADF098
S11328ECBDF2FAF27183A800BDF01002D761CFC11A
S11328FCC3C5C761DFC1C3C5C761CFFCCC0800AF7A
S113290C64FBBDF044000061F8EC4E2900C9F210E0
S113291CFFAF6EFBBDF0BDF4FAF48B9DF0ADF2BDD0
S113292CF4EAF48DF099AF6EFBBDF0A6F0ADF0BFF8
S113293C6EFBAF64FBBDF0B6F0ADF0BF64FBEC52C4
S113294C2900FC60290061DFC6C4C2C061CFC6C4C3
S113295CC2C061FCD761CFC1C3C5C761DFC1C3C5E8
S113296CC761CF2004C9F00601ADF0BDF2FAF2AB99
S113297CBDF05AF0078DF09802C9F20E0188029D41
S113298CF0F4F1ADF2BDF4EAF4ADF0B988029DF0C7
S113299CD4F061F8ECAE290088029DF09800FCA9F3
S11329AC2A00C9F046FFADF0BDF2FAF28B9DF09807
S11329BC0388039DF09800FCA91800AF60FBBDF2DE
S11329CCAF62FBBDF0ADF246F061E3EC212A00AF3F
S11329DC66FBBDF088039DF2ADF0BDF4EAF48DF214
S11329EC99AF66FBBDF0A6F0ADF0BF66FBAF62FB22
S11329FCBDF0A6F0ADF0BF62FBAF60FBBDF2AF6201
S1132A0CFBBDF0ADF246F061E8EC2F2A00FCA62ADF
S1132A1C00EC2F2A0088039DF0F4F1ADF0B800FC13
S1132A2CA72A00100461DFC6C4C2C061CFC6C4C2E9
S1132A3CC061FC61CFC1C3C5C761DFC1C3C5C76178
S1132A4CCFFCD10800AF70FBBDF044000061F8EC82
S1132A5C942A00C9F244FFAF6CFBBDF0BDF4FAF448
S1132A6C8B9DF0ADF2BDF4EAF48DF099AF6CFBBD27
S1132A7CF0A6F0ADF0BF6CFBAF70FBBDF0B6F0ADE3
S1132A8CF0BF70FBEC982A00FCA82A0061DFC6C4D6
S1132A9CC2C061CFC6C4C2C061FCD7D7D7D7C9F0F6
S1132AACF000ADF0BDF2FAF27182C9F0B601ADF0EE
S1132ABCBDF4EAF4F6B9C9F0B401ADF0BDF2EAF232
S1132ACC30FF0AB9C9F0E6FFADF0BDF4FAF471C2F7
S1132ADCC9F0E2FFADF0BDF2FAF271C3C9F0E6FF42
S1132AECADF0BDF4FAF471D2C9F0E2FFADF0BDF271
S1132AFCFAF271D3C9F0E5FFADF0BDF4FAF471F25A
S1132B0CC9F0E1FFADF0BDF2FAF271F3C9F0E6FFE2
S1132B1CADF0BDF4FAF471E2C9F0E2FFADF0BDF230
S1132B2CFAF271E3C9F0E6FFADF0BDF4FAF471F218
S1132B3CC9F0E2FFADF0BDF2FAF271F3C9F0E6FFB1
S1132B4CADF0BDF4FAF471A2C9F0E2FFADF0BDF240
S1132B5CFAF271A3C9F0E7FFADF0BDF4FAF471F227
S1132B6CC9F0E3FFADF0BDF2FAF271F3C9F0D4FF92
S1132B7CADF0BDF4FAF47182C9F0D0FFADF0BDF242
S1132B8CFAF27183C9F0D4FFADF0BDF4FAF471928A
S1132B9CC9F0D0FFADF0BDF2FAF27193C9F0D4FFD5
S1132BACADF0BDF4FAF471A2C9F0D0FFADF0BDF2F2
S1132BBCFAF271A3C9F0EEFFADF0BDF4FAF471C2F0
S1132BCCC9F0EAFFADF0BDF2FAF271C2C9F090019E
S1132BDCADF0BDF4EAF4F6B9C9F018FFADF0BDF2EE
S1132BECEAF230FF7CB9C9F2B801C9F0B801ADF012
S1132BFCBDF4FAF4ABBDF05AF0FEADF2BDF4EAF458
S1132C0CADF0B9C9F2BA01C9F0BA01ADF0BDF4FA2C
S1132C1CF4ABBDF05AF0FEADF2BDF4EAF4ADF0B98C
S1132C2CD7C9F0E2FFADF0BDF2FAF271C3C9F0E618
S1132C3CFFADF0BDF4FAF471C3C9F2B201C9F0B23C
S1132C4C01ADF0BDF4FAF4ABBDF06AF001ADF2BD28
S1132C5CF4EAF4ADF0B9D7C9F2B401C9F0B401ADDA
S1132C6CF0BDF4FAF4ABBDF06AF001ADF2BDF4EAD8
S1132C7CF4ADF0B9C9F0E6FFADF0BDF2FAF271C2F1
S1132C8CC9F0E2FFADF0BDF4FAF471C3D761CFC162
S1132C9CC3C5C7E6BF16F7C6C4C2C061FC61CFC1C9
S1132CACC3C5C7C6C4C2C061FCFC452200FC0822D3
S1132CBC00FC592200FCCC2200FC8C2000FCAA2A2B
S1132CCC00C9F07800ADF0BDF2EAF2F199D7200218
S1132CDC717BFAFCB52C00E6B800BDF01002D720CD
S1132CEC06FC712D00C9F00EFFADF0BDF2FAF271C5
S1132CFCF2FCA60900AF16F7BDF044010061E8EC44
S1132D0C6D2D00F6BF16F7AF14F7BDF0A6F0ADF0BD
S1132D1CBF14F7BDF044E80361E8EC6D2D00F6BF79
S1132D2C14F7FC852D00C9F201FFC9F001FFADF0C9
S1132D3CBDF4FAF48B3169317A9DF07AF0015AF0D2
S1132D4C01ADF2BDF4FAF47104F07191306E79B8FE
S1132D5C00F6B802FC940800304800B804FC472183
S1132D6C00ECFD2C00717AFAFC2D2C00FC292400BB
S1132D7CFC5D2700FC472100D7FCD51800FC32046D
S1132D8C00FCDC0000D7942DCBF8DCFE410061CFB5
S1132D9C34D8003600F761DF3600F73004F72731FA
S1132DAC1E440000DD0EB161CF11A9BBA5A5A7A7D8
S1132DBC61DFEFED61CF3604F730000061DF307E68
S1132DCCFB27311E440000DD0AB161CFBBA7A7610C
S1132DDCDFEFF161CFFCDA2C0000300000C1C1C17F
S1132DECFCEB2C00EFFEA80416A80614A808124449
S1132DFC0000DD08899BA5A7B313EFF3A804BDF06D
S1132E0CD732FFFFEF03A80812A80416A806148BE8
S1132E1CD1A7DFFBB713440000DD08899BA7A5B33A
S1132E2CD1DFF261719BA804BDF0D732FFFFEF0331
S1132E3CA80812A80416A8061413440000DD0F8970
S1132E4C708B6128DF08D0DD05A7A5B3EFEB318FBC
S1132E5CBDF0D7A80616A80414C18BA799A5D1DF79
S1132E6CF9A8001002BDF0D7A804121489D1DD030F
S1132E7CA5EFF91523BDF0D7C3C6F6612900BC0034
S1132E8CF13E0270F13E03BC02F13E0470F13E05CA
S1132E9CBC04F13E0670F13E07BC06D761EFC1617C
S1132EACCFA806BDF2ADF2168B9DF4D4F4DD218DC2
S1132EBCF40CD09DF04AF00961D3154AF42DDD0EC3
S1132ECC4AF42BDD094AF420DF43A6F2EFD7A6F22D
S1132EDCC9F00000ADF2168B9DF60CD09DF54AF5A9
S1132EEC0961C31DADF0320A00FD6A63BDF08DF6B5
S1132EFC318E04D0FFBDF6ADF006F6BDF0A6F2EFB0
S1132F0CD34AF42DDF0BF626F0BDF0EF04C9F00024
S1132F1C0061EFC061CFD7A806BDF2FAF2ABBDF0E9
S1132F2CDAF2A1780000ADF014880499D72008A82F
S1132F3C0EB80030232FB802AEF8040C00B804AE5F
S1132F4CF8040C00040400B806FD632FA80CBDF2B1
S1132F5CEAF2F1991008D761EFC1C3C561CF20FE25
S1132F6C2054AEF8045C0116ABBDF0AEF80462015B
S1132F7C16ABBDEAF6B822ADF0A1B834ADF0168BA1
S1132F8C9DF24AF225DD2AD4F261F8EDC33C8DF2B0
S1132F9C9800AEF804600116ABB802AEF8045E01FA
S1132FAC16AB1661FAFBF8FF617922A834BDF0EF79
S1132FBCC6EAF08A014C25DD0BF1983F9DE99DF39F
S1132FCC983EEF31ADF0040200B83451259800AEB0
S1132FDCF804600116ABB802AEF8045E0116AB1629
S1132FECEFC14AF22B61D31A4AF22DDF23A4F3FB6F
S1132FFCF8FF617934A834168B9DF24AF22BDFE288
S113300CEF244AF220DD164AF223DF20A4E9EFDF95
S113301C4AF230DF17FBF8FF61593FEFD2883ED1FB
S113302CDFCD5120EF02512B983EEFC38DE998C3AD
S113303C8DF398C2A834BDF04AF22ADD03F6EF2AC8
S113304CADEA040200BDF4FAEAABBDF6B8264400BE
S113305C0071FFDE0AF626F6B8268DF38198C2A815
S113306C34A1BDF0ADF4BDEAEF2DB826ADF0168B4E
S113307C9DF20CD09DF34AF30961C31BA826320AB6
S113308C00FD6A63BDF4A6F08DF2318E04D0FFBD51
S113309CF2ADF406F2EFD388C2D1DD03F1983FAD63
S11330ACF014894C2EDF49EAF08A014C2ADD05A67E
S11330BCF0F6EF0FFAEAABB818A6F0A6F0A6EAA65B
S11330CCEAEF32B818ADF0168B9DF20CD09DF34A92
S11330DCF30961C320A818320A00FD6A63BDF4A683
S11330ECF08DF2318E04D0FFBDF2ADF406F2EFD3C5
S11330FC30FFFFB818ADF0168B9DF2ADF0A1BDF406
S113310C4AF268DD124AF26CDD054AF24CDF0AAD74
S113311CF4BDF0E4F2EF04BDF0F4F2ADF0A1B83478
S113312CADF0168B9DE84AE86661F8ED51344AE837
S113313C6661C35E4AE85861F8ED9F324AE858610B
S113314CC31E4AE84561F8ED66344AE84761F8ED78
S113315C4134D4E861E8EDAB3BADF0B834EDAB3BB6
S113316C4AE86461F8EDD2324AE86461F3ED6634FE
S113317C4AE86361E8EDAB3BFAEA8B98CCA6EAA685
S113318CEAAEF8BDF404CD00BDECADF404CC00ED16
S113319CB23B4AE86F61F8ED88324AE86F61C318B4
S11331AC4AE86961F8EDD2324AE86EDD484AE867CC
S11331BC61E8EDAB3BED41344AE873DD694AE873F1
S11331CC61C31F4AE87061E8EDAB3BFAEAABB81E89
S11331DC317B98209821A6EAA6EA308779B81AEDB3
S11331ECCD324AE87561F8ED9F324AE87861F8ED22
S11331FCA63CEDAB3BADEA040200BDF4FAEAABBD70
S113320CF0A822D4F2DD10BDF2ADF014ADF2B93158
S113321C7B9A029A03EF08BDF2ADF014ADF2B9AD8E
S113322CF4BDEAEDB72FADEA040200BDF2FAEAAB45
S113323CBDEC440000DF04C9EC7879A81844000004
S113324C71FFDE05301027B818C9F00000ADECA1F1
S113325CBDF4EAEC89D1DD17A818BDF6ADF046F63D
S113326C71FF7177F7DE08A6F0ADF4BDECEFDEADBF
S113327CEC26F0B81CADF2BDEAEDB43BD4E961F830
S113328CEDA63CA81844000061E8EDA63CE6B8188D
S113329CEDA63C308779B81AFAEAABB81ED4F2DD45
S11332AC0DAC02B820ADEA040400BDEAEF09F198B4
S11332BC209821A6EAA6EA4AE86FDD4E4AE875DDB5
S11332CC56301000EF47FAEAABB81ED4F2DD0DAC61
S11332DC02B820ADEA040400BDEAEF0A317B982061
S11332EC9821A6EAA6EA882171FCDE30A82012A84F
S11332FC1EFD0562B81E13B820308779B81A300A3F
S113330C00B828F6B82A512DEF09300800B828F671
S113331CB82AF1983EEF12300A00EFF1308779B8F1
S113332C1A300A00B828F6B82AE4F2A8204400009F
S113333CA81E61F8440000DF02F4F2AEF804510157
S113334CBDECA818440000DF0AADECBDF0D4F2DDEE
S113335C74EF04ADECBDF0B6F0A82AC1A82AC1A83C
S113336C2412A822FDF3591004BDF413BDF6A81AB7
S113337C06F4BDF4ADF014FAF48B99A82AC1A82A6A
S113338CC1A82412A822FDD2591004BDF413BDF611
S113339CADF4B81EADF6B820ADF6440000ADF46142
S11333ACF8440000DFB1A81844000071FFDE168851
S11333BC3FD1DD11883ED1F4F461E8E4F4F4F5A8CE
S11333CC2626F4B818ADEC26F0BDF4A81846F47112
S11333DCFF7177F561D30AB6F0ADF014513099EF63
S11333ECE4ADF0B81CD4E961F8EDB43BD4F261F867
S11333FCEDB43B8DE85CDF9DF24AF258DF15ADF07D
S113340CB1148DE899ADF004FEFFB81CADF004FEC8
S113341CFFEF1B4AE86F61E8EDB43BADF014894C47
S113342C3061F8EDB43BADF0B1B81CADF0B1145152
S113343C3099EDB43B8DE80CFE9DE8A818440000CF
S113344CDD29E6EF16A4F2A81844000071FF61D838
S113345CEDB63CF6B824F4E8EF16F6B824A81844F4
S113346C000071FFDE0A300600EF03E6B824B8183A
S113347CD4F2DD37ADEA040400BDECFAEAABB800D3
S113348CAC02B802FDD33CADF0B840ADF2B842ADDD
S113349CF4B844ADF6B846ADF0B810A842B812A8CA
S11334AC44B814A846B816ADECEF16FAEAABB8104B
S11334BCAC02B812AC04B814AC06B816ADEA0408E5
S11334CC00BDEAF6B882F6B884F6B886F6B888A8D1
S11334DC10B800A812B802A814B804A816B806A804
S11334EC82B808B80AB80CB80EFDE2558DF0D1714B
S11334FCFFDE368810982C8811982D8812982E8807
S113350C13982F8814983088159831881698328817
S113351C170C809833A82CB810A82EB812A830B861
S113352C14A832B816512D983EAEF804CC00BDF652
S113353CA82606F6B81CF6B88AF6B88CF6B88E30FF
S113354CF03FB890A810B800A812B802A814B80498
S113355CA816B806A88AB808B80AB80C30F03FB850
S113356C0EFD3F558DF0D171FF61D8ED8A36F6B85A
S113357C1AF6B8923000E0B894307648B8963037E2
S113358C42B898A810B800A812B802A814B804A895
S113359C16B806A892B808A894B80A307648B80C9D
S11335AC303742B80EFD3F558DF0D171FFDC4DA87C
S11335BC10B800A812B802A814B804A816B806F6D5
S11335CCB808300020B80A305FA0B80C300242B8FA
S11335DC0EFD3B50ADF0B848ADF2B84AADF4B84C62
S11335ECADF6B84EADF0B810ADF2B812A84CB81494
S11335FCA84EB816A81A040A00ED7B35F6B89AF64C
S113360CB89CF6B89E302440B8A0A810B800A812F4
S113361CB802A814B804A816B806A89AB808B80A28
S113362CB80C302440B80EFD3F558DF0D171FF61BC
S113363CD8EDC937A810B800A812B802A814B80459
S113364CA816B806F6B808F6B80AF6B80C30244032
S113365CB80EFD3B50ADF0B850ADF2B852ADF4B865
S113366C54ADF6B856ADF0B810ADF2B812ADF4B81E
S113367C14ADF6B816FBF8FF61791AED0836F6B8F6
S113368CA2F6B8A4F6B8A6F6B8A8A810B800A81262
S113369CB802A814B804A816B806A8A2B808B80AA0
S11336ACB80CB80EFD9D54F6B81AD4F061F8EDC9F7
S11336BC37F6B8AA3000E0B8AC30DF7CB8AE30DBFB
S11336CC3DB8B0A810B800A812B802A814B804A841
S11336DC16B806A8AAB808A8ACB80A30DF7CB80C8F
S11336EC30DB3DB80EFD84568DF0D171FF61C34FB4
S11336FCA810B800A812B802A814B804A816B806E2
S113370CF6B808300020B80A305FA0B80C3002427A
S113371CB80EFD8146ADF0B858ADF2B85AADF4B858
S113372C5CADF6B85EADF0B810ADF2B812ADF4B84D
S113373C14ADF6B816A81A04F6FFB81AEDBD36F691
S113374CB8B2F6B8B4F6B8B630F03FB8B8A810B8FA
S113375C00A812B802A814B804A816B806A8B2B8DF
S113376C08B80AB80C30F03FB80EFDE2558DF0D114
S113377C71FFDE49A810B800A812B802A814B80446
S113378CA816B806F6B808F6B80AF6B80C302440F1
S113379CB80EFD8146ADF0B860ADF2B862ADF4B8C8
S11337AC64ADF6B866ADF0B810ADF2B812A864B852
S11337BC14A866B816FBF8FF61891AEF82A8244492
S11337CC0000DD2CA818BDF0A81A46F071FF717723
S11337DCF1DE1344FCFF71FF71C0DC0AA81A12ADB0
S11337ECF023B818F4E8FBF8FF618918D4E9DD0478
S11337FCF4E9EF05E198C39DE9D4E861E8EDA73855
S113380CA81A44000071FF61C8ED9A38AEF804CCD4
S113381C00BDF2A82606F214513099A818440000F1
S113382CDF1088C3D1DF0BA81CA1BDECC9F00000CC
S113383CEF16A81C040200BDECA81CBDF6A6F6EA03
S113384CF6512E99A818BDF0C9F20000B6F2A81AC8
S113385CBDF4ADF246F471FF7177F561D312ADF09E
S113386C440000DD0BEAEC513099B6F0A6ECEFDC29
S113387CA8187CFF7AF8FFBDF4A81A46F471FF71FE
S113388C77F561D8EDAC3CADF0B818E6EF12A81A98
S113389C12F623B878A81CBDECEF07A81CBDECF6F7
S11338ACB878ADECB824A818BDF0A87846F071FF30
S11338BC7177F161F3EDCE39A810B800A812B802F3
S11338CCA814B804A816B806FD4558ADF0B8C4AD94
S11338DCF2B8C6ADF0BDF6B8C888C5317B98CA98A5
S11338ECCBADF6B800A8CAB802FD2657ADF0B8683F
S11338FCADF2B86AADF4B86CADF6B86EA810B800F9
S113390CA812B802A868B808A86AB80AA86CB80CB7
S113391CA86EB80EFDB745ADF0B836ADF2B838ADFB
S113392CF4B83AADF6B83CADF0BDF4B87AADF2BD2E
S113393CF6B87CA83ABDF0B87EA83CBDF2B880AD10
S113394CF4B800ADF6B802ADF0B804ADF2B806F6B2
S113395CB808F6B80AF6B80C302440B80EFD814607
S113396CADF0B870ADF2B872ADF4B874ADF6B8761B
S113397CADF0B810ADF2B812A874B814A876B81695
S113398CA824A1BDF0A8241288C40C30480000A8B7
S113399C78A1BDF2A878440000DF1EA818440000EA
S11339ACDF0588C3D1DD12A824040200BDF0A824CD
S11339BCBDF6A6F6EAF6512E99ADF2B878ADF0ED57
S11339CCB038A824BDECF6B8BAF6B8BCF6B8BE301C
S11339DC1440B8C0A810B800A812B802A814B804AF
S11339ECA816B806A8BAB808B80AB80C301440B867
S11339FC0EFD3F558DF0D171FF61D8EDAA3AADECB7
S1133A0CB1BDF0E6B818ADF0168B9DF24AF22EDD7E
S1133A1C19728818610A9DF24AF23ADD049BF6EF9A
S1133A2C07ADF014513099E6B818ADF0B1BDF2A859
S1133A3C1C46F0DE06ADF2BDF0EFCBA81844000036
S1133A4CDD5CA824D4E8DD31BDF0A81C46F0DE21F1
S1133A5CADF0B1168B9DF2ADF04AF22EDF0B1404CF
S1133A6CFEFF168B99B6F0EF04148DF299B6F0EFB5
S1133A7CD9FBF8FF61791AEF16A1BDECBDF0A81CB7
S1133A8C46F0DE0BADF014B1168B99B6F0EFEFAE39
S1133A9CF804CC00BDF4A82606F414513199D4E9E9
S1133AACDD22ADECBDF0ADF0B1168B9DF24AF230D7
S1133ABCDF04B6F0EFF0ADF0BDEC4AF22EDF05AD4D
S1133ACCF0B1BDECD4E861F8ED733BEAEC8DE89908
S1133ADCADEC040200BDF0A81AEAEC44000071FF3E
S1133AECDE0D512D9A01A81A12F623B81AEF0451BF
S1133AFC2B9A01ADF0040A00BDECC9F00000A6F04D
S1133B0CADF0BDE8ADECA1BDF4A81A320A00FDA6D7
S1133B1C5933BDF633BDF2DAEC8DF60C30480000A7
S1133B2CADF2B81AADF2440000DD06ADF4BDECEF15
S1133B3CCDADF044010071FF61D3F0ADF426F0B8C3
S1133B4C18ADF004F5FF26E8BDF2ADF406F2BDF2B3
S1133B5CA818EAF2168B99B6F0ADF0440000DFDB3E
S1133B6CADEC04F7FFBDEC883FD1DD3C883ED1F4CD
S1133B7CF061E8E4F0F4F1A82626F0BDF0A81C12DC
S1133B8CADEC23BDF2ADF046F271FF7177F361D366
S1133B9C17FBF8FF61891CA81C14513099EFDEC97E
S1133BACECAC7930A979B81CFBF8FFADEC61291C9D
S1133BBCBDECA826BDF4ADEC46F471FF7177F5614C
S1133BCCC319ADF426ECBDE8883ED1F4F061E8E409
S1133BDCF0F4F1ADE826F0BDE8EF04C9E800008884
S1133BECC2D1DF2AB6E8ADE844000071FFDC1F51F6
S1133BFC209800AEF804600116ABB802AEF8045E6F
S1133C0C0116AB1661FAFBF8FF617922EFD6883EF8
S1133C1CD1DD1D883E9800AEF804600116ABB802E5
S1133C2CAEF8045E0116AB1661FAFBF8FF6179225B
S1133C3CB6ECADEC44000071FFDC2AA81CA1B8184A
S1133C4CA81C168B9800AEF804600116ABB802AE33
S1133C5CF8045E0116AB1661FAFBF8FF617922A831
S1133C6C18B81CEFCB88C2D161F8EDB72FB6E8AD0C
S1133C7CE844000071FF61D8EDB72F51209800AED5
S1133C8CF804600116ABB802AEF8045E0116AB166C
S1133C9C61FAFBF8FF617922EFD3309879EDA23207
S1133CACD4E961E8EDAE3AED733BF6B824F4E830B0
S1133CBC0600B818ED8034A822BDF010FE10546133
S1133CCCEFC4C2C061CFD761EFC161CF203CA84221
S1133CDCB82EA844B830AEF8043C00BDF004F2FF92
S1133CECB800ADF004F6FFB802FD4E65A832B8007A
S1133CFCA834B802A836B804C9F40000A838BDF03A
S1133D0CA83ABDF28DF49DF5A800B81EA802B820FF
S1133D1CA804B822A806B824ADF0B800ADF2B802D5
S1133D2CADF4B804B806511E9808FDF862A81EB884
S1133D3C00A820B802A822B804ADF0B816ADF2B8A9
S1133D4C18ADF4B81AADF6B81CADF0B806ADF2B8AF
S1133D5C08ADF4B80AADF6B80CFD2559ADF0B80EA3
S1133D6CADF2B810ADF4B812ADF6B814ADF0B82687
S1133D7CADF2B828ADF4B82AADF6B82CA826BDF02F
S1133D8C103C61EFC061CFD761EFC1C3C561CF20D7
S1133D9CFE2016AEF8041E0116ABBDECAEF80420E2
S1133DAC0116ABBDEAAEF804220116ABBDE8FAEC81
S1133DBCABBDF044010061E3EDDF44FAEAABBDF2C4
S1133DCC44010061E3EDE344ADF0440400DF21ADB4
S1133DDCECBDF0ADF244040061E8EDEB44EAF0AA6A
S1133DEC0261490261F8EDEB44C9F0AE79EDEB44A4
S1133DFCADF244040061F8EDE344440200DF3DAD50
S1133E0CF044020061E8EDDF44EAE8ADF0B9FAEC05
S1133E1CAC02BA02AC04BA04AC06BA06AC08BA08D2
S1133E2CAC0ABA0AAC0CBA0CFAEAAC02FAEC12AC54
S1133E3C02615B08615A08BA02EDE744ADF0440232
S1133E4C0061F8EDE344FAECAC04DBF8FF78000114
S1133E5CFAEAAC04BDF0F6B810F6B812F6B814F6DB
S1133E6CB816FAECAC06B810AC08B812AC0AB81414
S1133E7CAC0CB816F6B818F6B81AF6B81CF6B81E88
S1133E8CFAEAAC06B818AC08B81AAC0AB81CAC0CF4
S1133E9CB81EAEF804000114A926F0BDF2ADF2FD73
S1133EAC3462DBF8FF781201443F0071FF61F3EDDB
S1133EBC8B41ADF244000071FF61E3ED1F40A81883
S1133ECCB800A81AB802A81CB804A81EB806AEF804
S1133EDC041201168B9808FD2B63ADF0B868ADF293
S1133EECB86AADF4B86CADF6B86EADF0B860A86A4B
S1133EFCB862A86CB864ADF6B866F6B82AF6B82CF5
S1133F0CF6B82EE6B828B800A82AB802B804B80641
S1133F1CFDF862ADF0B870ADF2B872ADF4B874AD32
S1133F2CF6B876ADF0B800ADF2B802ADF4B804ADA5
S1133F3CF6B80630FFFFB80830FFFFB80A30FFFFB1
S1133F4CB80C30FFFFB80EFDA761ADF0B878ADF238
S1133F5CB87AADF4B87CADF6B87EADF0B800A87AFA
S1133F6CB802A87CB804ADF6B806A818B808A81A04
S1133F7CB80AA81CB80CA81EB80EFD3B62ADF0B86C
S1133F8C80ADF2B882ADF4B884ADF6B886F6B8421A
S1133F9CF6B844F6B846E6B840A880B800A882B88B
S1133FAC02A884B804ADF6B806A82CB808B80AB8A8
S1133FBC0CB80EFDA3624AF001DF04A82CB840A88B
S1133FCC40B8F8A842B8FAA844B8FCA846B8FEA869
S1133FDCF8B800A8FAB802A844B804A846B806A8C9
S1133FEC60B808A862B80AA864B80CA866B80EFD34
S1133FFC6F62ADF0B888ADF2B88AADF4B88CADF69A
S113400CB88EADF0B818ADF2B81AA88CB81CADF6D1
S113401CEDBC4144000061F8EDBE41AEF804000172
S113402C14AEF804120116A9610900B9A810B8005D
S113403CA812B802A814B804A816B806AEF804124C
S113404C01168B9808FD2B63ADF0B890ADF2B892C5
S113405CADF4B894ADF6B896ADF0B858A892B85A79
S113406CA894B85CADF6B85EF6B84AF6B84CF6B897
S113407C4EE6B848B800A84AB802B804B806FDF829
S113408C62ADF0B898ADF2B89AADF4B89CADF6B890
S113409C9EADF0B800ADF2B802ADF4B804ADF6B80C
S11340AC0630FFFFB80830FFFFB80A30FFFFB80C2A
S11340BC30FFFFB80EFDA761ADF0B8A0ADF2B8A209
S11340CCADF4B8A4ADF6B8A6ADF0B800A8A2B80289
S11340DCA8A4B804ADF6B806A810B808A812B80A73
S11340ECA814B80CA816B80EFD3B62ADF0B8A8AD78
S11340FCF2B8AAADF4B8ACADF6B8AEF6B83AF6B8B8
S113410C3CF6B83EE6B838A8A8B800A8AAB802A8E5
S113411CACB804ADF6B806A84CB808B80AB80CB8D4
S113412C0EFDA3624AF001DF03F6B838A838B8F0E4
S113413CA83AB8F2A83CB8F4A83EB8F6A8F0B8006F
S113414CA8F2B802A83CB804A83EB806A858B80807
S113415CA85AB80AA85CB80CA85EB80EFD6F62AD7C
S113416CF0B8B0ADF2B8B2ADF4B8B4ADF6B8B6AD13
S113417CF0B810ADF2B812ADF4B814ADF6EF23AE3E
S113418CF804000114A946F071FF7177F161C316AC
S113419CDBF8FFADF0780001F6B810F6B812A810F1
S11341ACB814B816EF0CF6B818F6B81AA818B81C48
S11341BCB81EFAECAC02BDF0FAEAAC0246F061F8B7
S11341CCEDB743ADF0440000DD3FA818B800A81AC1
S11341DCB802A81CB804A81EB806A810B808A812DF
S11341ECB80AA814B80CA816B80EFDD461ADF0B872
S11341FCB8ADF2B8BAADF4B8BCADF6B8BEADF0B863
S113420C20A8BAB822A8BCEF3DA810B800A812B8D0
S113421C02A814B804A816B806A818B808A81AB89E
S113422C0AA81CB80CA81EB80EFDD461ADF0B8C019
S113423CADF2B8C2ADF4B8C4ADF6B8C6ADF0B820A2
S113424CA8C2B822A8C4B824ADF6B826A820B800D1
S113425CA822B802A824B804A826B806F6B808F60A
S113426CB80AF6B80CF6B80EFDD862EAE8D4F0DD5C
S113427C1CF6BA02AEF804000116ABBA04A820BAB4
S113428C06A822BA08A824BA0AA826EF3FE6BA025E
S113429CAEF804000116ABBA04A820B800A822B8E2
S11342AC02A824B804A826B806FD1362ADF0B8C859
S11342BCADF2B8CAADF4B8CCADF6B8CEADF0EAE810
S11342CCBA06A8CABA08A8CCBA0AADF6BA0CFAE867
S11342DCAC06B850AC08B852AC0AB854AC0CB856CE
S11342ECA850B800A852B802A854B804A856B806E6
S11342FC30FFFFB80830FFFFB80A30FFFFB80C30AE
S113430CFFFFB80EFDA761DBF8FFADF0780A01AD35
S113431CF2780C01ADF4780E01ADF6781001ADF025
S113432CB800AEF8040C0116ABB802AEF8040E01DA
S113433C16ABB804ADF6B80630FEFFB80830FF0F64
S113434CB80EFDA3624AF00161F3ED0B44A850B81A
S113435C00A852B802A854B804A856B806A850B875
S113436C08A852B80AA854B80CA856B80EFDA761F0
S113437CDBF8FFADF0780201ADF2780401ADF4780E
S113438C0601ADF6780801ADF0EAE8BA06AEF80419
S113439C040116ABBA08AEF804060116ABBA0AADA2
S11343ACF6BA0CFAE8618904EDDA42EAE8ADF0BA3F
S11343BC02AEF804000116ABBA04A818B800A81A87
S11343CCB802A81CB804A81EB806A810B808A812ED
S11343DCB80AA814B80CA816B80EFDA761ADF0B8AD
S11343ECD0ADF2B8D2ADF4B8D4ADF6B8D6ADF0EADF
S11343FCE8BA06ADF2BA08A8D4BA0AADF6BA0CEA11
S113440CE8300300B9F6B830F6B832F6B834F6B87A
S113441C36FAE8AC06B830AC08B832AC0AB834ACEE
S113442C0CB836A830B800A832B802A834B804A81E
S113443C36B80630FFFFB80830FFFFB80A30FFFF6C
S113444CB80C30FF1FB80EFDA3624AF00161E3ED16
S113445CE744E6B808F6B80AF6B80CF6B80EFD3B15
S113446C62ADF0B8D8ADF2B8DAADF4B8DCADF6B8EC
S113447CDEE19808FD2B63ADF0B8E0ADF2B8E2AD27
S113448CF4B8E4ADF6B8E6A8D8B800A8DAB802A82F
S113449CDCB804A8DEB806A8E0B808A8E2B80AA8F4
S11344ACE4B80CADF6B80EFD6F62ADF0B8E8ADF241
S11344BCB8EAADF4B8ECADF6B8EEEAE8ADF0BA068D
S11344CCADF2BA08ADF4BA0AADF6BA0CFAE86179F1
S11344DC04EF08ADECEF06ADEAEF02ADE8BDF01069
S11344ECFE101661EFC4C2C061CFD761EFC161CFBA
S11344FC2058A85EBDF0A860BDF2A862BDF4A86403
S113450CBDF6A866B80EA868B810A86AB812A86C4C
S113451CB814ADF0B81EADF2B820ADF4B822ADF6B7
S113452CB824A80EB826A810B828A812B82AA8141B
S113453CB82CAEF8045800BDF004C6FFB800ADF0BA
S113454C04D6FFB802FDD56CAEF8045800BDE804DF
S113455CCEFFB800ADE804E4FFB802FDD56CADE8BD
S113456CBDF004D6FFB800ADF004E4FFB802ADF022
S113457C04F2FFB804FD943DADF0B800FD8666ADC1
S113458CF0B806ADF2B808ADF4B80AADF6B80CAD97
S113459CF0B816ADF2B818ADF4B81AADF6B81CA84C
S11345AC16BDF0105861EFC061CFD761EFC161CF78
S11345BC2058A85EBDF0A860BDF2A862BDF4A86442
S11345CCBDF6A866B80EA868B810A86AB812A86C8C
S11345DCB814ADF0B81EADF2B820ADF4B822ADF6F7
S11345ECB824A80EB826A810B828A812B82AA8145B
S11345FCB82CAEF8045800BDF204C6FFB800ADF2F6
S113460C04D6FFB802FDD56CAEF8045800BDE8041E
S113461CCEFFB800ADE804E4FFB802FDD56CA83EAB
S113462C7AF801B83EAEF8045800BDE804D6FFB8D9
S113463C00ADE804E4FFB802ADE804F2FFB804FDF1
S113464C943DADF0B800FD8666ADF0B806ADF2B899
S113465C08ADF4B80AADF6B80CADF0B816ADF2B8B6
S113466C18ADF4B81AADF6B81CA816BDF010586104
S113467CEFC061CFD761EFC161CF20FE20ACAEF8A3
S113468C04B00116ABBDF0AEF804B20116ABBDF22A
S113469CAEF804B40116ABBDF4AEF804B60116AB17
S11346ACBDF6AEF804B80116ABB8B8AEF804BA014E
S11346BC16ABB8BAAEF804BC0116ABB8BCAEF80471
S11346CCBE0116ABB8BEDBF8FFADF0787001ADF2ED
S11346DC787201ADF4787401ADF6787601A8B878E7
S11346EC7801A8BA787A01A8BC787C01A8BE787E37
S11346FC01AEF804AA01BDF204C6FFB800ADF20481
S113470CD6FFB802FDD56CAEF804AA01BDE804CE00
S113471CFFB800ADE804E4FFB802FDD56CAEF804B4
S113472C800116ABBDF244010061C328AEF80482CB
S113473C0114AEF804900116A9614900C9F00000F7
S113474C61E8E4F0DBF8FFADF0788201AEF80480A8
S113475C01EDE94FAEF8048E0116ABBDF044010037
S113476C61C328AEF804820114AEF804900116A9B2
S113477C614900C9F0000061E8E4F0DBF8FFADF03A
S113478C789001AEF8048E01EDE94FADF2440400CB
S113479CDF0CADF044020061F8EDED4FEF8EADF09F
S11347AC440400DF0CADF244020061F8EDED4FEF70
S11347BCB2ADF244020061F8ED3847ADF0440200AA
S11347CCDDA1AEF804860116ABB830AEF80488014E
S11347DC16ABB832AEF8048A0116ABB834AEF80492
S11347EC8C0116ABB836A830B800A832B802A8347D
S11347FCB804A836B80651209808FD2B63ADF0B860
S113480C80ADF2B882ADF4B884ADF6B886ADF0B82C
S113481C70ADF2B872ADF4B874ADF6B876AEF80407
S113482C940116ABB838AEF804960116ABB83AAE90
S113483CF804980116ABB83CAEF8049A0116ABB860
S113484C3EA838B800A83AB802A83CB804A83EB8A8
S113485C06FD2B63ADF0B858ADF2B85AADF4B85CA4
S113486CADF6B85EADF0B8A8ADF2B8AAADF4B8AC7C
S113487CADF6B8AE30FFFFB80830FFFFB80AF6B893
S113488C0CF6B80EFD3B62ADF0B840ADF2B842ADDB
S113489CF4B844ADF6B846A830B800A832B802A8AB
S11348AC34B804A836B806FD3B62ADF0B848ADF296
S11348BCB84AADF4B84CADF6B84EADF0B800ADF2A4
S11348CCB802ADF4B804ADF6B806A840B808A842CE
S11348DCB80AA844B80CA846B80EFD7364ADF0B879
S11348ECC0ADF2B8C2ADF4B8C4ADF6B8C6ADF0B84C
S11348FC50A8C2B852ADF4B854ADF6B856A8A8B87E
S113490C08A8AAB80AA85CB80CA85EB80EFD736413
S113491CADF0B888ADF2B88AADF4B88CADF6B88EFB
S113492CADF0B878A88AB87AADF4B87CADF6B87E98
S113493CA8A8B800A8AAB802A85CB804A85EB806CF
S113494CA870B808A872B80AA884B80CA886B80EBF
S113495CFD7364ADF0B8C8ADF2B8CAADF4B8CCAD63
S113496CF6B8CEADF0B8B0A8CAB8B2ADF4B8B4AD20
S113497CF6B8B6A840B800A842B802A844B804A82F
S113498C46B806FD7364ADF0B8D0ADF2B8D2ADF450
S113499CB8D4ADF6B8D6ADF0B800A8D2B802ADF420
S11349ACB804ADF6B806A878B808A87AB80AA88CE2
S11349BCB80CA88EB80EFDA761ADF0B890ADF2B8E6
S11349CC92ADF4B894ADF6B896ADF0B828ADF2B893
S11349DC2AADF4B82CADF6B82EA828B800A82AB87D
S11349EC02ADF4B804ADF6B806FDA362F6B820F631
S11349FCB822F6D4F0DF08F6B826E6B824EF05B8EA
S1134A0C24F6B826A828B800A82AB802A82CB804FA
S1134A1CA82EB80630FFFFB80830FFFFB80AF6B866
S1134A2C0CF6B80EFD3B62ADF0B8D8ADF2B8DAAD09
S1134A3CF4B8DCADF6B8DEADF0B800ADF2B802AD4A
S1134A4CF4B804ADF6B80651209808FDF862ADF040
S1134A5CB8E0ADF2B8E2ADF4B8E4ADF6B8E6ADF05A
S1134A6CB800A8E2B802ADF4B804ADF6B806A85084
S1134A7CB808A852B80AA854B80CA856B80EFDA782
S1134A8C61ADF0B898ADF2B89AADF4B89CADF6B887
S1134A9C9EADF0B818ADF2B81AADF4B81CADF6B8BA
S1134AAC1EA818B800A81AB802ADF4B804ADF6B82C
S1134ABC06FDA362D4F0DF3FA820B800A822B802F8
S1134ACCA824B804A826B806E6B808F6B80AF6B8B6
S1134ADC0CF6B80EFDA761ADF0B8E8ADF2B8EAADCE
S1134AECF4B8ECADF6B8EEADF0B820A8EAB822AD47
S1134AFCF4B824ADF6B826A828B800A82AB802A899
S1134B0C2CB804A82EB80651209808FD2B63ADF0E0
S1134B1CB8F0ADF2B8F2ADF4B8F4ADF6B8F6ADF059
S1134B2CB800ADF2B802ADF4B804ADF6B806A8B04E
S1134B3CB808A8B2B80AA8B4B80CA8B6B80EFDA7A1
S1134B4C61ADF0B8F8ADF2B8FAADF4B8FCADF6B8A6
S1134B5CFEADF0B800ADF2B802ADF4B804ADF6B8E1
S1134B6C06A820B808A822B80AA824B80CA826B805
S1134B7C0EFDA761DBF8FFADF0780001ADF2780211
S1134B8C01ADF4780401ADF6780601ADF0B810AEC1
S1134B9CF804020116ABB812ADF4B814ADF6B8169D
S1134BACAEF804840114AEF804920116A96109004C
S1134BBCBDE8AEF804820114AEF804900116A961A4
S1134BCC4900C9F0000061E8E4F0ADF0789E01AD55
S1134BDCE8040400BDE8A810B800A812B802A81490
S1134BECB804A816B80630FFFFB80830FFFFB80A9F
S1134BFC30FFFFB80C30FF1FB80EFDA3624AF00162
S1134C0C61E3ED344EA810B800A812B802A814B889
S1134C1C04A816B806E6B808F6B80AF6B80CF6B83E
S1134C2C0EFD3B62DBF8FFADF0784001ADF278424B
S1134C3C01ADF4784401ADF6784601ADF0B800ADA1
S1134C4CF2B802ADF4B804ADF6B806F6B808FDA394
S1134C5C624AF00161F8EDF24CA818B800A81AB831
S1134C6C02A81CB804A81EB806E19808FD2B63DB47
S1134C7CF8FFADF0783001ADF2783201ADF4783450
S1134C8C01ADF6783601ADF0786801ADF2786A01C1
S1134C9CADF4786C01ADF6786E01AEF804680116CB
S1134CACABB800AEF8046A0116ABB802ADF4B804A4
S1134CBCADF6B806F6B808300080B80EFD6F62DBAE
S1134CCCF8FFADF0784801ADF2784A01ADF4784CB8
S1134CDC01ADF6784E01ADF0B818ADF2B81AADF4DA
S1134CECB81CADF6B81EA810B800A812B802A814C7
S1134CFCB804A816B806E19808FD2B63DBF8FFADE1
S1134D0CF0785001ADF2785201ADF4785401ADF65F
S1134D1C785601ADF0B810ADF2B812ADF4B814ADCC
S1134D2CF6B816A6E8EDE24BA810B800A812B80223
S1134D3CA814B804A816B806A810B808A812B80A7B
S1134D4CA814B80CA816B80EFDA761DBF8FFADF0DB
S1134D5C783801ADF2783A01ADF4783C01ADF678CF
S1134D6C3E01ADF0B810ADF2B812ADF4B814ADF616
S1134D7CB816A818B800A81AB802A81CB804A81E1B
S1134D8CB806F6B808F6B80AF6B80CF6B80EFDD89C
S1134D9C62D4F0DF47A810B800A812B802AEF80429
S1134DAC3C0116ABB804AEF8043E0116ABB806E6EB
S1134DBCB808FD6F62DBF8FFADF0785801ADF278FE
S1134DCC5A01ADF4785C01ADF6785E01ADF0B81023
S1134DDCADF2B812ADF4B814ADF6B816A818B80004
S1134DECA81AB802A81CB804A81EB806A818B808B3
S1134DFCA81AB80AA81CB80CA81EB80EFDA761DB2B
S1134E0CF8FFADF0786001ADF2786201ADF478642E
S1134E1C01ADF6786601ADF0B818ADF2B81AADF480
S1134E2CB81CADF6B81EB6E8A810B800A812B802A3
S1134E3CA814B804A816B80630FFFFB80830FFFF52
S1134E4CB80A30FFFFB80C30FF0FB80EFDA3624A4E
S1134E5CF00161E3ED344DA810B868A812B86AA843
S1134E6C14B86CA816B86EDBF8FFADE878A0013066
S1134E7CFF00B808F6B80AF6B80CF6B80EFD3B629B
S1134E8CDBF8FFADF0780801ADF2780A01ADF478E7
S1134E9C0C01ADF6780E01ADF0B800ADF2B802AD70
S1134EACF4B804ADF6B806308000B808FDA3624A25
S1134EBCF00161E8EDC74FA868B800A86AB802A869
S1134ECC14B804A816B806300001B808FD3B62DB20
S1134EDCF8FFADF0781001ADF2781201ADF478144E
S1134EEC01ADF6781601ADF0B800ADF2B802ADF430
S1134EFCB804ADF6B806F6B808FDA3624AF0016131
S1134F0CE8EDC74FA818B800A81AB802A81CB80432
S1134F1CA81EB806FDA3624AF00161F8EDC74FA8BC
S1134F2C68B800A86AB802A814B804A816B8063061
S1134F3C8000B808FDA761ADF0B8A0ADF2B8A2AD81
S1134F4CF4B8A4ADF6B8A6DBF8FFADF0782001AD4B
S1134F5CF2782201ADF4782401ADF6782601AEF88E
S1134F6C04200116ABB800AEF804220116ABB8024B
S1134F7CADF4B804ADF6B8063000FFB80830FFFF46
S1134F8CB80A30FFFFB80C30FFFFB80EFD3B62DBF4
S1134F9CF8FFADF0781801ADF2781A01ADF4781C75
S1134FAC01ADF6781E01ADF0B810AEF8041A011676
S1134FBCABB812ADF4B814ADF6B816A810DBF8FF04
S1134FCC78A201A81278A401A81478A601A81678CE
S1134FDCA801300300789C01AEF8049C01BDF0EFED
S1134FEC04C9F0AE79ADF0B800FD8666ADF0B860DA
S1134FFCADF2B862ADF4B864ADF6B866DBF8FFADEB
S113500CF0782801ADF2782A01ADF4782C01ADF6D4
S113501C782E01AEF804280116ABBDF0AEF8042AC4
S113502C0116ABBDF210FE10AC61EFC061CFD761BD
S113503CEFC161CF20CCA8D2BDF0A8D4BDF2A8D6C4
S113504CBDF4A8D8BDF6A8DAB848A8DCB84AA8DEDE
S113505CB84CA8E0BDE8B84EADF0B8A0ADF2B8A21B
S113506CADF4B8A4ADF6B8A6A848B8A8A84AB8AA8E
S113507CA84CB8ACADE8B8AEAEF804CC00BDF004A6
S113508CD4FFB800ADF004E4FFB802FDD56CAEF863
S113509C04CC00BDF204DCFFB800ADF204F2FFB89E
S11350AC02FDD56CA8B0BDF444010061E3ED50548D
S11350BCA8BEBDF244010061E3ED5754A8B212A896
S11350CCC0617B08617A08B8B2ADF4440400DD0514
S11350DC440200DF0CADF446F261E8ED5054ED608F
S11350EC54ADF2440400DF12F6B8B6F6B8B8F6B80C
S11350FCBAF6B8BCF6B8B4ED5054440200DF08302C
S113510C0400B8B0ED5054A8C212A8B423BDE8B83A
S113511CB4A8B6B810A8B8B812A8BAB814A8BCB831
S113512C16A8C4B820A8C6B822A8C8B824A8CAB857
S113513C26A810B800A812B802A814B804A816B867
S113514C06A820B808A822B80AA824B80CA826B81F
S113515C0EFDA362D4F0DF38A810B808A812B80A60
S113516CA814B80CA816B80EFDA761ADF0B850ADD4
S113517CF2B852ADF4B854ADF6B856ADF0B810ADB3
S113518CF2B812ADF4B814A856B816ADE8B1B8B468
S113519CC9E83D00F6B828F6B82AF6B82C30001049
S11351ACB82EF6B818F6B81AF6B81CF6B81EA8102D
S11351BCB800A812B802A814B804A816B806A820F7
S11351CCB808A822B80AA824B80CA826B80EFDA3BF
S11351DC62D4F061F8ED6A52A828B800A82AB80283
S11351ECA82CB804A82EB806A818B808A81AB80A87
S11351FCA81CB80CA81EB80EFD6F62ADF0B888AD33
S113520CF2B88AADF4B88CADF6B88EADF0B818A877
S113521C8AB81AADF4B81CA88EB81EA810B800A889
S113522C12B802A814B804A816B806A820B808A87E
S113523C22B80AA824B80CA826B80EFDD461ADF087
S113524CB890ADF2B892ADF4B894ADF6B896ADF0A2
S113525CB810A892B812ADF4B814A896B816A82829
S113526CB800A82AB802A82CB804A82EB806E1984D
S113527C08FD2B63ADF0B898ADF2B89AADF4B89CB8
S113528CADF6B89EADF0B828ADF2B82AADF4B82C92
S113529CA89EB82EA810B800A812B802A814B80476
S11352ACA816B806A810B808A812B80AA814B80CFE
S11352BCA816B80EFDA761ADF0B880ADF2B882ADFA
S11352CCF4B884ADF6B886ADF0B810ADF2B812AD42
S11352DCF4B814A886B816B6E8ADE844000061E842
S11352ECEDBA51A818BDF2B830A81ABDF6B832A858
S11352FC1CBDE8B834A81EBDF0B836ADF2B800AD8C
S113530CF6B802ADE8B804ADF0B80630FF00B80842
S113531CF6B80AF6B80CF6B80EFD3B62ADF0B85808
S113532CADF2B85AADF4B85CADF6B85EADF0B800F9
S113533CA85AB802ADF4B804A85EB806308000B818
S113534C08FDA3624AF00161E8ED4054A818B800C6
S113535CA81AB802A81CB804A81EB806300001B8D4
S113536C08FD3B62ADF0B860ADF2B862ADF4B86460
S113537CADF6B866ADF0B800A862B802ADF4B804E6
S113538CA866B806F6B808FDA3624AF00161E8ED18
S113539C4054A810B800A812B802A884B804A8866F
S11353ACB806FDA3624AF00161F8ED4054A818B8A0
S11353BC00A81AB802A81CB804A81EB806308000AD
S11353CCB808FDA761ADF0B840ADF2B842ADF4B881
S11353DC44ADF6B846ADF0BDF2B870A842BDF6B80F
S11353EC72ADF4BDE8B874A846BDF0B876ADF2B8A9
S11353FC00ADF6B802ADE8B804ADF0B8063000FF65
S113540CB80830FFFFB80A30FFFFB80C30FFFFB804
S113541C0EFD3B62ADF0B868ADF2B86AADF4B86C91
S113542CADF6B86EADF0B830A86AB832ADF4B83495
S113543CA86EB836A830B8B6A832B8B8A834B8BA7A
S113544CA836B8BCAEF804B000EF05AEF804BE0044
S113545CBDF0EF04C9F0AE79ADF0B800FD8666ADD1
S113546CF0B838ADF2B83AADF4B83CADF6B83EADE0
S113547CF0BDE8B878ADF2B87AADF4B87CADF6B856
S113548C7EADE8BDF0A87ABDF210CC61EFC061CF5F
S113549CD761EFC161CF2038A83EBDF0A840BDF262
S11354ACA842BDF4A844BDF6A846B804A848B8065A
S11354BCA84AB808A84CB80AADF0B80CADF2B80EAE
S11354CCADF4B810ADF6B812A804B814A806B81602
S11354DCA808B818A80AB81AAEF8043800BDF00425
S11354ECD4FFB800ADF004E4FFB802FDD56CAEF8FF
S11354FC043800BDE804DCFFB800ADE804F2FFB8E2
S113550C02FDD56CA81C44010061D31DA82A4401DA
S113551C0061D315ADE8BDF004E4FFB800ADF004B0
S113552CF2FFB802FDAC6FEF02E4F0103861EFC08B
S113553C61CFD761EFC161CF2038A83EBDF0A84040
S113554CBDF2A842BDF4A844BDF6A846B804A848C8
S113555CB806A84AB808A84CB80AADF0B80CADF215
S113556CB80EADF4B810ADF6B812A804B814A80669
S113557CB816A808B818A80AB81AAEF8043800BDAA
S113558CF004D4FFB800ADF004E4FFB802FDD56C10
S113559CAEF8043800BDE804DCFFB800ADE804F252
S11355ACFFB802FDD56CA81C44010061D31DA82AC8
S11355BC44010061D315ADE8BDF004E4FFB800ADBF
S11355CCF004F2FFB802FDAC6FEF03CDF0FF10381E
S11355DC61EFC061CFD761EFC161CF2038A83EBD68
S11355ECF0A840BDF2A842BDF4A844BDF6A846B844
S11355FC04A848B806A84AB808A84CB80AADF0B82C
S113560C0CADF2B80EADF4B810ADF6B812A804B8DF
S113561C14A806B816A808B818A80AB81AAEF8043C
S113562C3800BDF004D4FFB800ADF004E4FFB802B8
S113563CFDD56CAEF8043800BDE804DCFFB800AD51
S113564CE804F2FFB802FDD56CA81C44010061D338
S113565C1DA82A44010061D315ADE8BDF004E4FF94
S113566CB800ADF004F2FFB802FDAC6FEF02E4F049
S113567C103861EFC061CFD761EFC161CF2038A87A
S113568C3EBDF0A840BDF2A842BDF4A844BDF6A8A6
S113569C46B804A848B806A84AB808A84CB80AAD35
S11356ACF0B80CADF2B80EADF4B810ADF6B812A853
S11356BC04B814A806B816A808B818A80AB81AAEDC
S11356CCF8043800BDF004D4FFB800ADF004E4FFD6
S11356DCB802FDD56CAEF8043800BDE804DCFFB8A4
S11356EC00ADE804F2FFB802FDD56CA81C4401001F
S11356FC61D31DA82A44010061D315ADE8BDF004A3
S113570CE4FFB800ADF004F2FFB802FDAC6FEF0299
S113571CE4F0103861EFC061CFD761EFC1C3C5614C
S113572CCF2038A842BDF0A844BDF2300300B82AFB
S113573CADF2317A9DF4F6BDF69DF58DF49DE8310C
S113574C8EB82CADF2440000ADF061F8440000DFDB
S113575C08300200B82AEDF057D4E8DD20ADF2444D
S113576C0080ADF061F844000061F8ED0D58ADF225
S113577C12ADF0FD0562BDEA13BDECEF08ADF0BD52
S113578CEAADF2BDECADEAB800ADECB802FDBA5A24
S113579CADF0041D00BDE8F6B816F6B818ADEAB8BD
S11357AC12ADECB814F19816981798189819A81605
S11357BCB804A818B8068DE89808FDF862ADF0B8DE
S11357CC1AADF2B81CADF4B81EADF6B820ADF0B8F5
S11357DC30ADF2B832ADF4B834ADF6B836303C0076
S11357EC26E8B82EAEF804380004F2FFB800FD86A3
S11357FC66ADF0B80AADF2B80CADF4B80EADF6EF78
S113580C0CF6B80AF6B80CF6B80E30E0C1B810A80D
S113581C0AB822A80CB824A80EB826A810B828A830
S113582C22BDF0A824BDF2A80EBDF4A810BDF6103C
S113583C3861EFC4C2C061CFD7202CA830BDF0A80A
S113584C32BDF2A834BDF4A836BDF6ADF0B816AD31
S113585CF2B818ADF4B81AADF6B81CAEF8042C00B6
S113586CBDF004EAFFB800ADF004F2FFB802FDD5B8
S113587C6CA81E44020061E3ED0C59440400DF2CB7
S113588CF6B80CA820440000C9F0000061E8E4F06C
S113589CADF0B80AF1980C980DA80A04FFFFB80AE9
S11358ACA80C61D8A104FF7FB80CEF62A822BDF04C
S11358BC44000071FFDC49441E0071FF61C3C1A8A0
S11358CC24B800A826B802A828B804A82AB806F850
S11358DCF0513C612A9808FD2B63ADF0B80EADF283
S11358ECB810ADF4B812ADF6B814A820440000DD1D
S11358FC15A81012A80EFD0562B80A13B80CEF0E09
S113590CF6B80AF6EF06A80EB80AA810B80CA80A3E
S113591CBDF0A80CBDF2102CD72020A82ABDF0A8ED
S113592C2CBDF2A82EBDF4A830BDF6A824B812A83C
S113593C26B814A828B816ADF0B818ADF2B81AAD3C
S113594CF4B81CADF6B81EAEF804200004F2FFB88F
S113595C00FD8666ADF0B802ADF2B804ADF4B8063D
S113596CADF6B808ADF0B80AADF2B80CADF4B80E9B
S113597CADF6B810A80ABDF01020D7CFE800C0BE11
S113598CF013BEF6F6BEF2BEF4CFE800C18FE80009
S113599C3103FAAFE00012AEF0D7C55400317505EF
S11359AC14F62554033174FB08C1F62312C07AFC97
S11359BC02FEC7FF3104FC05C1F62312C03114FCEE
S11359CC0314F625C4D7CFE800C0BEF013BEF2A86A
S11359DC04BEF6A806BEF4CFE800C18FE80031037C
S11359ECFAAEF212AEF0D7CFE800C0BEF013BEF29E
S11359FCA804BEF6A806BEF4CFE800C18FE80031B7
S1135A0C03FAAFE20012AFE000D7C714A80831754F
S1135A1C15A80616F627C1A80A16F661D8B127C62A
S1135A2CC1C75601EF06C1A808C156003174FB0C5E
S1135A3CF62514F661D8B123127AFE0115FE86FF01
S1135A4C10043104FE0B14F62514F661D8B123129C
S1135A5C15C6D7C714A808317513A80616F627C19E
S1135A6CA80A16F661D8B127C6C1C7EF04C1A808A5
S1135A7CC156003174FB0AF62514F661D8B1231211
S1135A8C8615FE62FF10043104FE0B14F62514F681
S1135A9C61D8B1231215C6D7A804C9F0100044006C
S1135AAC00DD0A54FF84311DDEFB649DF0D7A8068B
S1135ABC440000DFE5A804FDA65AADF0041000BDB7
S1135ACCF0D7A804C9F01000440000DD0A54FF8488
S1135ADC311EDEFB649DF0D7A804440000DFE5A86A
S1135AEC06FDD05AADF0041000BDF0D7A804C9F0DF
S1135AFC0000440000DD0A540084311EDEFB649D6A
S1135B0CF0D7A804440000DFE5A806440000DD0833
S1135B1CFDFA5AADF0041000BDF0D7718C719F7171
S1135B2CAF71BF71CF71DF71EF71FFF6DE01A1BDF3
S1135B3CF0D7A8046178EFE3A804617873A8066130
S1135B4C78617BEFD65502EF045504EF00AEF804F0
S1135B5C040016F1618B8B618B540831181C009472
S1135B6CDFF9A795DFEE70F1BDF0D72004A80EB8CD
S1135B7C02A80CB800FDBA5A4AF020DF0EA80AB8E5
S1135B8C02A808B800FDBA5A0AF0201004D7200461
S1135B9CA80AB802A808B800FDE45A4AF020DF0E9F
S1135BACA80EB802A80CB800FDE45A0AF0201004A0
S1135BBCD72004A80AB802A808B800FD0E5BD4F0DC
S1135BCCDF12A80EB802A80CB800FD0E5BD4F0616D
S1135BDCE80AF0201004D72004A808B800A80AB8D2
S1135BEC02FD555B8DF09DF2A80CB800A80EB8020E
S1135BFCFD555B8DF20BF09DF01004D72004A80822
S1135C0CB800A80AB802FD445B8DF09DF2A80CB84C
S1135C1C00A80EB802FD445B8DF20BF05C019DF004
S1135C2C1004D7A804BDF0A8067C80BDF2D78C0262
S1135C3C5C80708C035C7F44807F61E8D78C025C51
S1135C4C7F6E016DDF04716BFAD7716AFAD7AEF807
S1135C5C04080016FED7FFDD09AEF8040C0016FE8E
S1135C6CCCFFD78C035C7F6E026E016DD7AEF8044B
S1135C7C080016FEEDFFDF13AEF8040C0016FEE26E
S1135C8CFFDF02F1D7AEF8040800168C037E07710F
S1135C9CFCDE078C03317B6C01D7AC02614906DC5A
S1135CAC13DF0AAB614904DC0BDF02F1D78C03313F
S1135CBC7B6C01D78C037C80317B6C01D7FE8EFF0F
S1135CCCDF05C9F00100D7FEA3FF9DF0317B9DF1E8
S1135CDCD7CDF001FE77FF61F8D7FE90FF9DF0D78A
S1135CECCDF0FFEFEFFE66FFC9F0000061F8C9F0DC
S1135CFC0100D7AEF804040016FD275EDF148807F4
S1135D0C317309C9F0FFFFC9F2FF7FD7F4F0CDF26C
S1135D1C00D7A804BDF2A80631752671FBFE21003C
